{
  "_format": "hh-sol-artifact-1",
  "contractName": "LootScratch",
  "sourceName": "contracts/LootScratch.sol",
  "abi": [
    {
      "inputs": [
        {
          "internalType": "address",
          "name": "vrfCoordinator",
          "type": "address"
        },
        {
          "internalType": "bytes32",
          "name": "keyHash",
          "type": "bytes32"
        },
        {
          "internalType": "uint256",
          "name": "subscriptionId",
          "type": "uint256"
        }
      ],
      "stateMutability": "nonpayable",
      "type": "constructor"
    },
    {
      "inputs": [],
      "name": "ERC721EnumerableForbiddenBatchMint",
      "type": "error"
    },
    {
      "inputs": [
        {
          "internalType": "address",
          "name": "sender",
          "type": "address"
        },
        {
          "internalType": "uint256",
          "name": "tokenId",
          "type": "uint256"
        },
        {
          "internalType": "address",
          "name": "owner",
          "type": "address"
        }
      ],
      "name": "ERC721IncorrectOwner",
      "type": "error"
    },
    {
      "inputs": [
        {
          "internalType": "address",
          "name": "operator",
          "type": "address"
        },
        {
          "internalType": "uint256",
          "name": "tokenId",
          "type": "uint256"
        }
      ],
      "name": "ERC721InsufficientApproval",
      "type": "error"
    },
    {
      "inputs": [
        {
          "internalType": "address",
          "name": "approver",
          "type": "address"
        }
      ],
      "name": "ERC721InvalidApprover",
      "type": "error"
    },
    {
      "inputs": [
        {
          "internalType": "address",
          "name": "operator",
          "type": "address"
        }
      ],
      "name": "ERC721InvalidOperator",
      "type": "error"
    },
    {
      "inputs": [
        {
          "internalType": "address",
          "name": "owner",
          "type": "address"
        }
      ],
      "name": "ERC721InvalidOwner",
      "type": "error"
    },
    {
      "inputs": [
        {
          "internalType": "address",
          "name": "receiver",
          "type": "address"
        }
      ],
      "name": "ERC721InvalidReceiver",
      "type": "error"
    },
    {
      "inputs": [
        {
          "internalType": "address",
          "name": "sender",
          "type": "address"
        }
      ],
      "name": "ERC721InvalidSender",
      "type": "error"
    },
    {
      "inputs": [
        {
          "internalType": "uint256",
          "name": "tokenId",
          "type": "uint256"
        }
      ],
      "name": "ERC721NonexistentToken",
      "type": "error"
    },
    {
      "inputs": [
        {
          "internalType": "address",
          "name": "owner",
          "type": "address"
        },
        {
          "internalType": "uint256",
          "name": "index",
          "type": "uint256"
        }
      ],
      "name": "ERC721OutOfBoundsIndex",
      "type": "error"
    },
    {
      "inputs": [],
      "name": "LootScratch__DailyLimit",
      "type": "error"
    },
    {
      "inputs": [],
      "name": "LootScratch__Paused",
      "type": "error"
    },
    {
      "inputs": [],
      "name": "LootScratch__PendingRequest",
      "type": "error"
    },
    {
      "inputs": [],
      "name": "LootScratch__ReferralFailed",
      "type": "error"
    },
    {
      "inputs": [],
      "name": "LootScratch__WrongPayment",
      "type": "error"
    },
    {
      "inputs": [
        {
          "internalType": "address",
          "name": "have",
          "type": "address"
        },
        {
          "internalType": "address",
          "name": "want",
          "type": "address"
        }
      ],
      "name": "OnlyCoordinatorCanFulfill",
      "type": "error"
    },
    {
      "inputs": [
        {
          "internalType": "address",
          "name": "have",
          "type": "address"
        },
        {
          "internalType": "address",
          "name": "owner",
          "type": "address"
        },
        {
          "internalType": "address",
          "name": "coordinator",
          "type": "address"
        }
      ],
      "name": "OnlyOwnerOrCoordinator",
      "type": "error"
    },
    {
      "inputs": [],
      "name": "ZeroAddress",
      "type": "error"
    },
    {
      "anonymous": false,
      "inputs": [
        {
          "indexed": true,
          "internalType": "address",
          "name": "owner",
          "type": "address"
        },
        {
          "indexed": true,
          "internalType": "address",
          "name": "approved",
          "type": "address"
        },
        {
          "indexed": true,
          "internalType": "uint256",
          "name": "tokenId",
          "type": "uint256"
        }
      ],
      "name": "Approval",
      "type": "event"
    },
    {
      "anonymous": false,
      "inputs": [
        {
          "indexed": true,
          "internalType": "address",
          "name": "owner",
          "type": "address"
        },
        {
          "indexed": true,
          "internalType": "address",
          "name": "operator",
          "type": "address"
        },
        {
          "indexed": false,
          "internalType": "bool",
          "name": "approved",
          "type": "bool"
        }
      ],
      "name": "ApprovalForAll",
      "type": "event"
    },
    {
      "anonymous": false,
      "inputs": [
        {
          "indexed": false,
          "internalType": "address",
          "name": "vrfCoordinator",
          "type": "address"
        }
      ],
      "name": "CoordinatorSet",
      "type": "event"
    },
    {
      "anonymous": false,
      "inputs": [
        {
          "indexed": true,
          "internalType": "address",
          "name": "player",
          "type": "address"
        },
        {
          "indexed": true,
          "internalType": "uint256",
          "name": "tokenId",
          "type": "uint256"
        }
      ],
      "name": "LegendaryMinted",
      "type": "event"
    },
    {
      "anonymous": false,
      "inputs": [
        {
          "indexed": false,
          "internalType": "uint256",
          "name": "newFee",
          "type": "uint256"
        }
      ],
      "name": "MintFeeUpdated",
      "type": "event"
    },
    {
      "anonymous": false,
      "inputs": [
        {
          "indexed": true,
          "internalType": "address",
          "name": "from",
          "type": "address"
        },
        {
          "indexed": true,
          "internalType": "address",
          "name": "to",
          "type": "address"
        }
      ],
      "name": "OwnershipTransferRequested",
      "type": "event"
    },
    {
      "anonymous": false,
      "inputs": [
        {
          "indexed": true,
          "internalType": "address",
          "name": "from",
          "type": "address"
        },
        {
          "indexed": true,
          "internalType": "address",
          "name": "to",
          "type": "address"
        }
      ],
      "name": "OwnershipTransferred",
      "type": "event"
    },
    {
      "anonymous": false,
      "inputs": [
        {
          "indexed": true,
          "internalType": "address",
          "name": "player",
          "type": "address"
        },
        {
          "indexed": false,
          "internalType": "uint256",
          "name": "requestId",
          "type": "uint256"
        }
      ],
      "name": "ScratchRequested",
      "type": "event"
    },
    {
      "anonymous": false,
      "inputs": [
        {
          "indexed": true,
          "internalType": "address",
          "name": "player",
          "type": "address"
        },
        {
          "indexed": true,
          "internalType": "uint256",
          "name": "tokenId",
          "type": "uint256"
        },
        {
          "indexed": false,
          "internalType": "uint8",
          "name": "rarity",
          "type": "uint8"
        }
      ],
      "name": "Scratched",
      "type": "event"
    },
    {
      "anonymous": false,
      "inputs": [
        {
          "indexed": true,
          "internalType": "address",
          "name": "player",
          "type": "address"
        },
        {
          "indexed": false,
          "internalType": "uint256",
          "name": "streakDays",
          "type": "uint256"
        }
      ],
      "name": "StreakAchieved",
      "type": "event"
    },
    {
      "anonymous": false,
      "inputs": [
        {
          "indexed": true,
          "internalType": "address",
          "name": "from",
          "type": "address"
        },
        {
          "indexed": true,
          "internalType": "address",
          "name": "to",
          "type": "address"
        },
        {
          "indexed": true,
          "internalType": "uint256",
          "name": "tokenId",
          "type": "uint256"
        }
      ],
      "name": "Transfer",
      "type": "event"
    },
    {
      "anonymous": false,
      "inputs": [
        {
          "indexed": true,
          "internalType": "address",
          "name": "to",
          "type": "address"
        },
        {
          "indexed": false,
          "internalType": "uint256",
          "name": "amount",
          "type": "uint256"
        }
      ],
      "name": "Withdrawal",
      "type": "event"
    },
    {
      "inputs": [],
      "name": "BPS_DENOMINATOR",
      "outputs": [
        {
          "internalType": "uint256",
          "name": "",
          "type": "uint256"
        }
      ],
      "stateMutability": "view",
      "type": "function"
    },
    {
      "inputs": [],
      "name": "DAILY_LIMIT",
      "outputs": [
        {
          "internalType": "uint256",
          "name": "",
          "type": "uint256"
        }
      ],
      "stateMutability": "view",
      "type": "function"
    },
    {
      "inputs": [],
      "name": "RARITY_COMMON",
      "outputs": [
        {
          "internalType": "uint8",
          "name": "",
          "type": "uint8"
        }
      ],
      "stateMutability": "view",
      "type": "function"
    },
    {
      "inputs": [],
      "name": "RARITY_EPIC",
      "outputs": [
        {
          "internalType": "uint8",
          "name": "",
          "type": "uint8"
        }
      ],
      "stateMutability": "view",
      "type": "function"
    },
    {
      "inputs": [],
      "name": "RARITY_LEGENDARY",
      "outputs": [
        {
          "internalType": "uint8",
          "name": "",
          "type": "uint8"
        }
      ],
      "stateMutability": "view",
      "type": "function"
    },
    {
      "inputs": [],
      "name": "RARITY_RARE",
      "outputs": [
        {
          "internalType": "uint8",
          "name": "",
          "type": "uint8"
        }
      ],
      "stateMutability": "view",
      "type": "function"
    },
    {
      "inputs": [],
      "name": "REFERRAL_BPS",
      "outputs": [
        {
          "internalType": "uint256",
          "name": "",
          "type": "uint256"
        }
      ],
      "stateMutability": "view",
      "type": "function"
    },
    {
      "inputs": [],
      "name": "SECONDS_PER_DAY",
      "outputs": [
        {
          "internalType": "uint256",
          "name": "",
          "type": "uint256"
        }
      ],
      "stateMutability": "view",
      "type": "function"
    },
    {
      "inputs": [],
      "name": "acceptOwnership",
      "outputs": [],
      "stateMutability": "nonpayable",
      "type": "function"
    },
    {
      "inputs": [
        {
          "internalType": "address",
          "name": "to",
          "type": "address"
        },
        {
          "internalType": "uint256",
          "name": "tokenId",
          "type": "uint256"
        }
      ],
      "name": "approve",
      "outputs": [],
      "stateMutability": "nonpayable",
      "type": "function"
    },
    {
      "inputs": [
        {
          "internalType": "address",
          "name": "owner",
          "type": "address"
        }
      ],
      "name": "balanceOf",
      "outputs": [
        {
          "internalType": "uint256",
          "name": "",
          "type": "uint256"
        }
      ],
      "stateMutability": "view",
      "type": "function"
    },
    {
      "inputs": [
        {
          "internalType": "uint256",
          "name": "tokenId",
          "type": "uint256"
        }
      ],
      "name": "getApproved",
      "outputs": [
        {
          "internalType": "address",
          "name": "",
          "type": "address"
        }
      ],
      "stateMutability": "view",
      "type": "function"
    },
    {
      "inputs": [],
      "name": "i_callbackGasLimit",
      "outputs": [
        {
          "internalType": "uint32",
          "name": "",
          "type": "uint32"
        }
      ],
      "stateMutability": "view",
      "type": "function"
    },
    {
      "inputs": [],
      "name": "i_keyHash",
      "outputs": [
        {
          "internalType": "bytes32",
          "name": "",
          "type": "bytes32"
        }
      ],
      "stateMutability": "view",
      "type": "function"
    },
    {
      "inputs": [],
      "name": "i_requestConfirmations",
      "outputs": [
        {
          "internalType": "uint16",
          "name": "",
          "type": "uint16"
        }
      ],
      "stateMutability": "view",
      "type": "function"
    },
    {
      "inputs": [],
      "name": "i_subscriptionId",
      "outputs": [
        {
          "internalType": "uint256",
          "name": "",
          "type": "uint256"
        }
      ],
      "stateMutability": "view",
      "type": "function"
    },
    {
      "inputs": [
        {
          "internalType": "address",
          "name": "owner",
          "type": "address"
        },
        {
          "internalType": "address",
          "name": "operator",
          "type": "address"
        }
      ],
      "name": "isApprovedForAll",
      "outputs": [
        {
          "internalType": "bool",
          "name": "",
          "type": "bool"
        }
      ],
      "stateMutability": "view",
      "type": "function"
    },
    {
      "inputs": [
        {
          "internalType": "address",
          "name": "",
          "type": "address"
        }
      ],
      "name": "legendaryBoostPending",
      "outputs": [
        {
          "internalType": "bool",
          "name": "",
          "type": "bool"
        }
      ],
      "stateMutability": "view",
      "type": "function"
    },
    {
      "inputs": [
        {
          "internalType": "address",
          "name": "",
          "type": "address"
        }
      ],
      "name": "legendaryMinted",
      "outputs": [
        {
          "internalType": "uint256",
          "name": "",
          "type": "uint256"
        }
      ],
      "stateMutability": "view",
      "type": "function"
    },
    {
      "inputs": [],
      "name": "mintFee",
      "outputs": [
        {
          "internalType": "uint256",
          "name": "",
          "type": "uint256"
        }
      ],
      "stateMutability": "view",
      "type": "function"
    },
    {
      "inputs": [],
      "name": "name",
      "outputs": [
        {
          "internalType": "string",
          "name": "",
          "type": "string"
        }
      ],
      "stateMutability": "view",
      "type": "function"
    },
    {
      "inputs": [],
      "name": "owner",
      "outputs": [
        {
          "internalType": "address",
          "name": "",
          "type": "address"
        }
      ],
      "stateMutability": "view",
      "type": "function"
    },
    {
      "inputs": [
        {
          "internalType": "uint256",
          "name": "tokenId",
          "type": "uint256"
        }
      ],
      "name": "ownerOf",
      "outputs": [
        {
          "internalType": "address",
          "name": "",
          "type": "address"
        }
      ],
      "stateMutability": "view",
      "type": "function"
    },
    {
      "inputs": [],
      "name": "pause",
      "outputs": [],
      "stateMutability": "nonpayable",
      "type": "function"
    },
    {
      "inputs": [],
      "name": "paused",
      "outputs": [
        {
          "internalType": "bool",
          "name": "",
          "type": "bool"
        }
      ],
      "stateMutability": "view",
      "type": "function"
    },
    {
      "inputs": [
        {
          "internalType": "uint256",
          "name": "requestId",
          "type": "uint256"
        },
        {
          "internalType": "uint256[]",
          "name": "randomWords",
          "type": "uint256[]"
        }
      ],
      "name": "rawFulfillRandomWords",
      "outputs": [],
      "stateMutability": "nonpayable",
      "type": "function"
    },
    {
      "inputs": [],
      "name": "s_vrfCoordinator",
      "outputs": [
        {
          "internalType": "contract IVRFCoordinatorV2Plus",
          "name": "",
          "type": "address"
        }
      ],
      "stateMutability": "view",
      "type": "function"
    },
    {
      "inputs": [
        {
          "internalType": "address",
          "name": "from",
          "type": "address"
        },
        {
          "internalType": "address",
          "name": "to",
          "type": "address"
        },
        {
          "internalType": "uint256",
          "name": "tokenId",
          "type": "uint256"
        }
      ],
      "name": "safeTransferFrom",
      "outputs": [],
      "stateMutability": "nonpayable",
      "type": "function"
    },
    {
      "inputs": [
        {
          "internalType": "address",
          "name": "from",
          "type": "address"
        },
        {
          "internalType": "address",
          "name": "to",
          "type": "address"
        },
        {
          "internalType": "uint256",
          "name": "tokenId",
          "type": "uint256"
        },
        {
          "internalType": "bytes",
          "name": "data",
          "type": "bytes"
        }
      ],
      "name": "safeTransferFrom",
      "outputs": [],
      "stateMutability": "nonpayable",
      "type": "function"
    },
    {
      "inputs": [
        {
          "internalType": "address",
          "name": "referrer",
          "type": "address"
        }
      ],
      "name": "scratch",
      "outputs": [],
      "stateMutability": "payable",
      "type": "function"
    },
    {
      "inputs": [
        {
          "internalType": "address",
          "name": "player",
          "type": "address"
        }
      ],
      "name": "scratchesToday",
      "outputs": [
        {
          "internalType": "uint256",
          "name": "",
          "type": "uint256"
        }
      ],
      "stateMutability": "view",
      "type": "function"
    },
    {
      "inputs": [
        {
          "internalType": "address",
          "name": "operator",
          "type": "address"
        },
        {
          "internalType": "bool",
          "name": "approved",
          "type": "bool"
        }
      ],
      "name": "setApprovalForAll",
      "outputs": [],
      "stateMutability": "nonpayable",
      "type": "function"
    },
    {
      "inputs": [
        {
          "internalType": "address",
          "name": "_vrfCoordinator",
          "type": "address"
        }
      ],
      "name": "setCoordinator",
      "outputs": [],
      "stateMutability": "nonpayable",
      "type": "function"
    },
    {
      "inputs": [
        {
          "internalType": "uint256",
          "name": "newFee",
          "type": "uint256"
        }
      ],
      "name": "setMintFee",
      "outputs": [],
      "stateMutability": "nonpayable",
      "type": "function"
    },
    {
      "inputs": [
        {
          "internalType": "address",
          "name": "player",
          "type": "address"
        }
      ],
      "name": "streakDays",
      "outputs": [
        {
          "internalType": "uint256",
          "name": "",
          "type": "uint256"
        }
      ],
      "stateMutability": "view",
      "type": "function"
    },
    {
      "inputs": [
        {
          "internalType": "bytes4",
          "name": "interfaceId",
          "type": "bytes4"
        }
      ],
      "name": "supportsInterface",
      "outputs": [
        {
          "internalType": "bool",
          "name": "",
          "type": "bool"
        }
      ],
      "stateMutability": "view",
      "type": "function"
    },
    {
      "inputs": [],
      "name": "symbol",
      "outputs": [
        {
          "internalType": "string",
          "name": "",
          "type": "string"
        }
      ],
      "stateMutability": "view",
      "type": "function"
    },
    {
      "inputs": [
        {
          "internalType": "uint256",
          "name": "index",
          "type": "uint256"
        }
      ],
      "name": "tokenByIndex",
      "outputs": [
        {
          "internalType": "uint256",
          "name": "",
          "type": "uint256"
        }
      ],
      "stateMutability": "view",
      "type": "function"
    },
    {
      "inputs": [
        {
          "internalType": "address",
          "name": "owner",
          "type": "address"
        },
        {
          "internalType": "uint256",
          "name": "index",
          "type": "uint256"
        }
      ],
      "name": "tokenOfOwnerByIndex",
      "outputs": [
        {
          "internalType": "uint256",
          "name": "",
          "type": "uint256"
        }
      ],
      "stateMutability": "view",
      "type": "function"
    },
    {
      "inputs": [
        {
          "internalType": "uint256",
          "name": "tokenId",
          "type": "uint256"
        }
      ],
      "name": "tokenRarity",
      "outputs": [
        {
          "internalType": "uint8",
          "name": "",
          "type": "uint8"
        }
      ],
      "stateMutability": "view",
      "type": "function"
    },
    {
      "inputs": [
        {
          "internalType": "uint256",
          "name": "tokenId",
          "type": "uint256"
        }
      ],
      "name": "tokenURI",
      "outputs": [
        {
          "internalType": "string",
          "name": "",
          "type": "string"
        }
      ],
      "stateMutability": "view",
      "type": "function"
    },
    {
      "inputs": [],
      "name": "totalPlayers",
      "outputs": [
        {
          "internalType": "uint256",
          "name": "",
          "type": "uint256"
        }
      ],
      "stateMutability": "view",
      "type": "function"
    },
    {
      "inputs": [],
      "name": "totalScratches",
      "outputs": [
        {
          "internalType": "uint256",
          "name": "",
          "type": "uint256"
        }
      ],
      "stateMutability": "view",
      "type": "function"
    },
    {
      "inputs": [],
      "name": "totalSupply",
      "outputs": [
        {
          "internalType": "uint256",
          "name": "",
          "type": "uint256"
        }
      ],
      "stateMutability": "view",
      "type": "function"
    },
    {
      "inputs": [
        {
          "internalType": "address",
          "name": "from",
          "type": "address"
        },
        {
          "internalType": "address",
          "name": "to",
          "type": "address"
        },
        {
          "internalType": "uint256",
          "name": "tokenId",
          "type": "uint256"
        }
      ],
      "name": "transferFrom",
      "outputs": [],
      "stateMutability": "nonpayable",
      "type": "function"
    },
    {
      "inputs": [
        {
          "internalType": "address",
          "name": "to",
          "type": "address"
        }
      ],
      "name": "transferOwnership",
      "outputs": [],
      "stateMutability": "nonpayable",
      "type": "function"
    },
    {
      "inputs": [],
      "name": "unpause",
      "outputs": [],
      "stateMutability": "nonpayable",
      "type": "function"
    },
    {
      "inputs": [
        {
          "internalType": "address payable",
          "name": "to",
          "type": "address"
        }
      ],
      "name": "withdraw",
      "outputs": [],
      "stateMutability": "nonpayable",
      "type": "function"
    }
  ],
  "bytecode": "0x61010060405266038d7ea4c68000600d55620c350060c052600360e052348015610027575f5ffd5b5060405161406238038061406283398101604081905261004691610237565b8233805f6040518060400160405280600c81526020016b098dedee840a6c6e4c2e8c6d60a31b815250604051806040016040528060048152602001631313d3d560e21b815250815f908161009a919061030e565b5060016100a7828261030e565b5050506001600160a01b0382166101055760405162461bcd60e51b815260206004820152601860248201527f43616e6e6f7420736574206f776e657220746f207a65726f000000000000000060448201526064015b60405180910390fd5b600a80546001600160a01b0319166001600160a01b0384811691909117909155811615610135576101358161018e565b5050506001600160a01b03811661015f5760405163d92e233d60e01b815260040160405180910390fd5b600c80546001600160a01b0319166001600160a01b039290921691909117905560809190915260a052506103c8565b336001600160a01b038216036101e65760405162461bcd60e51b815260206004820152601760248201527f43616e6e6f74207472616e7366657220746f2073656c6600000000000000000060448201526064016100fc565b600b80546001600160a01b0319166001600160a01b03838116918217909255600a54604051919216907fed8889f560326eb138920d842192f0eb3dd22b4f139c87a2c57538e05bae1278905f90a350565b5f5f5f60608486031215610249575f5ffd5b83516001600160a01b038116811461025f575f5ffd5b602085015160409095015190969495509392505050565b634e487b7160e01b5f52604160045260245ffd5b600181811c9082168061029e57607f821691505b6020821081036102bc57634e487b7160e01b5f52602260045260245ffd5b50919050565b601f82111561030957805f5260205f20601f840160051c810160208510156102e75750805b601f840160051c820191505b81811015610306575f81556001016102f3565b50505b505050565b81516001600160401b0381111561032757610327610276565b61033b81610335845461028a565b846102c2565b6020601f82116001811461036d575f83156103565750848201515b5f19600385901b1c1916600184901b178455610306565b5f84815260208120601f198516915b8281101561039c578785015182556020948501946001909201910161037c565b50848210156103b957868401515f19600387901b60f8161c191681555b50505050600190811b01905550565b60805160a05160c05160e051613c4b6104175f395f81816103d70152610ff601525f81816107c7015261102001525f81816104d60152610fd001525f818161069b0152610faa0152613c4b5ff3fe60806040526004361061028a575f3560e01c806378df39a711610155578063a22cb465116100be578063e1a4521811610078578063e1a45218146107fe578063e985e9c514610813578063eddd0d9c14610832578063f2fde38b14610851578063f60cdcf614610870578063f83d758b14610885575f5ffd5b8063a22cb4651461071b578063afb0a3691461073a578063b88d4fde14610759578063c874483614610778578063c87b56dd14610797578063d757d027146107b6575f5ffd5b80638ea981171161010f5780638ea981171461065757806395d89b411461067657806395ff69431461068a578063965ede14146106bd5780639e94bb93146106e85780639eccacf6146106fc575f5ffd5b806378df39a7146105b857806379ba5097146105ec5780637aad8789146106005780638456cb5914610613578063867b4f44146106275780638da5cb5b1461063a575f5ffd5b80632f745c59116101f757806351cff8d9116101b157806351cff8d9146105175780635c975abb146105365780636352211e1461054f5780636e8cddea1461056e57806370a082311461058357806374f0314f146105a2575f5ffd5b80632f745c591461045e5780633f4ba83a1461047d57806342842e0e1461049157806343a93c0e146104b0578063470cdf97146104c55780634f6ccce7146104f8575f5ffd5b806318160ddd1161024857806318160ddd14610384578063193bae39146103985780631e3223e4146103c65780631fe543e31461040c57806323b872dd1461042b578063248ec3261461044a575f5ffd5b8062c84c201461028e57806301ffc9a7146102b957806306fdde03146102e8578063081812fc14610309578063095ea7b31461034057806313966db514610361575b5f5ffd5b348015610299575f5ffd5b506102a2600281565b60405160ff90911681526020015b60405180910390f35b3480156102c4575f5ffd5b506102d86102d3366004612804565b610899565b60405190151581526020016102b0565b3480156102f3575f5ffd5b506102fc6108c3565b6040516102b0919061284d565b348015610314575f5ffd5b5061032861032336600461285f565b610952565b6040516001600160a01b0390911681526020016102b0565b34801561034b575f5ffd5b5061035f61035a36600461288a565b610979565b005b34801561036c575f5ffd5b50610376600d5481565b6040519081526020016102b0565b34801561038f575f5ffd5b50600854610376565b3480156103a3575f5ffd5b506102d86103b23660046128b4565b60146020525f908152604090205460ff1681565b3480156103d1575f5ffd5b506103f97f000000000000000000000000000000000000000000000000000000000000000081565b60405161ffff90911681526020016102b0565b348015610417575f5ffd5b5061035f6104263660046128cf565b610988565b348015610436575f5ffd5b5061035f610445366004612949565b6109dd565b348015610455575f5ffd5b50610376600581565b348015610469575f5ffd5b5061037661047836600461288a565b610a66565b348015610488575f5ffd5b5061035f610ac9565b34801561049c575f5ffd5b5061035f6104ab366004612949565b610add565b3480156104bb575f5ffd5b50610376600e5481565b3480156104d0575f5ffd5b506103767f000000000000000000000000000000000000000000000000000000000000000081565b348015610503575f5ffd5b5061037661051236600461285f565b610af7565b348015610522575f5ffd5b5061035f6105313660046128b4565b610b4c565b348015610541575f5ffd5b506010546102d89060ff1681565b34801561055a575f5ffd5b5061032861056936600461285f565b610c2e565b348015610579575f5ffd5b506103766101f481565b34801561058e575f5ffd5b5061037661059d3660046128b4565b610c38565b3480156105ad575f5ffd5b506103766201518081565b3480156105c3575f5ffd5b506103766105d23660046128b4565b6001600160a01b03165f9081526013602052604090205490565b3480156105f7575f5ffd5b5061035f610c7d565b34801561060b575f5ffd5b506102a25f81565b34801561061e575f5ffd5b5061035f610d2a565b61035f6106353660046128b4565b610d41565b348015610645575f5ffd5b50600a546001600160a01b0316610328565b348015610662575f5ffd5b5061035f6106713660046128b4565b6111a9565b348015610681575f5ffd5b506102fc61129c565b348015610695575f5ffd5b506103767f000000000000000000000000000000000000000000000000000000000000000081565b3480156106c8575f5ffd5b506103766106d73660046128b4565b60176020525f908152604090205481565b3480156106f3575f5ffd5b506102a2600181565b348015610707575f5ffd5b50600c54610328906001600160a01b031681565b348015610726575f5ffd5b5061035f610735366004612987565b6112ab565b348015610745575f5ffd5b506102a261075436600461285f565b6112b6565b348015610764575f5ffd5b5061035f6107733660046129d6565b6112d6565b348015610783575f5ffd5b506103766107923660046128b4565b6112ee565b3480156107a2575f5ffd5b506102fc6107b136600461285f565b611342565b3480156107c1575f5ffd5b506107e97f000000000000000000000000000000000000000000000000000000000000000081565b60405163ffffffff90911681526020016102b0565b348015610809575f5ffd5b5061037661271081565b34801561081e575f5ffd5b506102d861082d366004612ab7565b611446565b34801561083d575f5ffd5b5061035f61084c36600461285f565b611473565b34801561085c575f5ffd5b5061035f61086b3660046128b4565b6114b0565b34801561087b575f5ffd5b50610376600f5481565b348015610890575f5ffd5b506102a2600381565b5f6001600160e01b0319821663780e9d6360e01b14806108bd57506108bd826114c4565b92915050565b60605f80546108d190612ae3565b80601f01602080910402602001604051908101604052809291908181526020018280546108fd90612ae3565b80156109485780601f1061091f57610100808354040283529160200191610948565b820191905f5260205f20905b81548152906001019060200180831161092b57829003601f168201915b5050505050905090565b5f61095c82611513565b505f828152600460205260409020546001600160a01b03166108bd565b61098482823361154b565b5050565b600c546001600160a01b031633146109cd57600c5460405163073e64fd60e21b81523360048201526001600160a01b0390911660248201526044015b60405180910390fd5b6109d8838383611558565b505050565b6001600160a01b038216610a0657604051633250574960e11b81525f60048201526024016109c4565b5f610a12838333611728565b9050836001600160a01b0316816001600160a01b031614610a60576040516364283d7b60e01b81526001600160a01b03808616600483015260248201849052821660448201526064016109c4565b50505050565b5f610a7083610c38565b8210610aa15760405163295f44f760e21b81526001600160a01b0384166004820152602481018390526044016109c4565b506001600160a01b03919091165f908152600660209081526040808320938352929052205490565b610ad16117fb565b6010805460ff19169055565b6109d883838360405180602001604052805f8152506112d6565b5f610b0160085490565b8210610b295760405163295f44f760e21b81525f6004820152602481018390526044016109c4565b60088281548110610b3c57610b3c612b1b565b905f5260205f2001549050919050565b610b546117fb565b60405147905f906001600160a01b0384169083908381818185875af1925050503d805f8114610b9e576040519150601f19603f3d011682016040523d82523d5f602084013e610ba3565b606091505b5050905080610be65760405162461bcd60e51b815260206004820152600f60248201526e1dda5d1a191c985dc819985a5b1959608a1b60448201526064016109c4565b826001600160a01b03167f7fcf532c15f0a6db0bd6d0e038bea71d30d808c7d98cb3bf7268a95bf5081b6583604051610c2191815260200190565b60405180910390a2505050565b5f6108bd82611513565b5f6001600160a01b038216610c62576040516322718ad960e21b81525f60048201526024016109c4565b506001600160a01b03165f9081526003602052604090205490565b600b546001600160a01b03163314610cd05760405162461bcd60e51b815260206004820152601660248201527526bab9ba10313290383937b837b9b2b21037bbb732b960511b60448201526064016109c4565b600a80546001600160a01b031980821633908117909355600b805490911690556040516001600160a01b03909116919082907f8be0079c531659141344cd1fd0a4f28419497f9722a3daafe3b4186f6b6457e0905f90a350565b610d326117fb565b6010805460ff19166001179055565b60105460ff1615610d6557604051631d37d41d60e21b815260040160405180910390fd5b335f908152601a602052604090205460ff1615610d955760405163e3fe519560e01b815260040160405180910390fd5b600d543414610db757604051633143f44f60e11b815260040160405180910390fd5b5f610dc56201518042612b57565b335f908152601660205260409020549091508114610dfa57335f90815260166020908152604080832084905560159091528120555b335f90815260156020526040902054600511610e29576040516305534b8960e21b815260040160405180910390fd5b6001600160a01b03821615801590610e4a57506001600160a01b0382163314155b15610ee2575f6127106101f4600d54610e639190612b6a565b610e6d9190612b57565b90505f836001600160a01b0316826040515f6040518083038185875af1925050503d805f8114610eb8576040519150601f19603f3d011682016040523d82523d5f602084013e610ebd565b606091505b5050905080610edf57604051634538022760e11b815260040160405180910390fd5b50505b335f908152601560205260408120805491610efc83612b81565b9091555050600e8054905f610f1083612b81565b9091555050335f9081526011602052604090205460ff16610f5857335f908152601160205260408120805460ff19166001179055600f805491610f5283612b81565b91905055505b335f9081526014602052604090205460ff168015610f8757335f908152601460205260409020805460ff191690555b5f60405180602001604052806001151581525090505f6040518060c001604052807f000000000000000000000000000000000000000000000000000000000000000081526020017f000000000000000000000000000000000000000000000000000000000000000081526020017f000000000000000000000000000000000000000000000000000000000000000061ffff1681526020017f000000000000000000000000000000000000000000000000000000000000000063ffffffff168152602001600163ffffffff16815260200161106084611850565b9052600c54604051634d8e1c2f60e11b81529192505f916001600160a01b0390911690639b1c385e90611097908590600401612b99565b6020604051808303815f875af11580156110b3573d5f5f3e3d5ffd5b505050506040513d601f19601f820116820180604052508101906110d79190612bf5565b335f818152601a60209081526040808320805460ff1916600190811790915581516060810183528581526001600160a01b038d81168286019081528c1515838601908152898852601990965295849020915182549082166001600160a01b031990911617825594519101805493511515600160a01b026001600160a81b031990941691909416179190911790915551919250907f5f738060b0c1d22378fece7d4dd217a57e1ef952a4a87818853ba9becdda7a55906111999084815260200190565b60405180910390a2505050505050565b600a546001600160a01b031633148015906111cf5750600c546001600160a01b03163314155b1561122057336111e7600a546001600160a01b031690565b600c5460405163061db9c160e01b81526001600160a01b03938416600482015291831660248301529190911660448201526064016109c4565b6001600160a01b0381166112475760405163d92e233d60e01b815260040160405180910390fd5b600c80546001600160a01b0319166001600160a01b0383169081179091556040519081527fd1a6a14209a385a964d036e404cb5cfb71f4000cdb03c9366292430787261be6906020015b60405180910390a150565b6060600180546108d190612ae3565b6109843383836118c1565b5f6112c082611513565b50505f9081526018602052604090205460ff1690565b6112e18484846109dd565b610a603385858585611988565b5f806112fd6201518042612b57565b6001600160a01b0384165f90815260166020526040902054909150811461132657505f92915050565b50506001600160a01b03165f9081526015602052604090205490565b606061134d82611513565b505f8281526018602052604081205460ff169061136984610c2e565b90505f61137585611ab0565b61137e84611b40565b60405160200161138f929190612c23565b60405160208183030381529060405290505f6113aa84611b40565b6113b384611bec565b6040516020016113c4929190612c64565b60405160208183030381529060405290505f6113e08588611d76565b90505f83836113ee84611dcd565b60405160200161140093929190612cfb565b604051602081830303815290604052905061141a81611dcd565b60405160200161142a9190612d91565b6040516020818303038152906040529650505050505050919050565b6001600160a01b039182165f90815260056020908152604080832093909416825291909152205460ff1690565b61147b6117fb565b600d8190556040518181527f38fbb1c8b109c430f0c030e7ed076cf5611a307773a4e8e365601e8f8bceaec690602001611291565b6114b86117fb565b6114c181611dd9565b50565b5f6001600160e01b031982166380ac58cd60e01b14806114f457506001600160e01b03198216635b5e139f60e01b145b806108bd57506301ffc9a760e01b6001600160e01b03198316146108bd565b5f818152600260205260408120546001600160a01b0316806108bd57604051637e27328960e01b8152600481018490526024016109c4565b6109d88383836001611e82565b5f838152601960208181526040808420815160608101835281546001600160a01b0380821683526001840180548083168589015260ff600160a01b820416151596850196909652978b9052959094526001600160a01b031990931690556001600160a81b0319169092558151166115cf5750505050565b80516001600160a01b03165f908152601a60205260408120805460ff1916905560648484838161160157611601612b1b565b905060200201356116129190612dc2565b90505f611623828460400151611f86565b9050611631835f0151612002565b5f61163b60085490565b611646906001612dd5565b5f818152601860205260409020805460ff191660ff8516179055845190915061166f9082612175565b60021960ff8316016116db5783516001600160a01b03165f90815260176020526040812080549161169f83612b81565b9091555050835160405182916001600160a01b0316907f4927521b0cc3bde9830bbb3ba60bb83ba1936cd0e22f6a9a1db5ab337269a4d5905f90a35b835160405160ff8416815282916001600160a01b0316907fc48d98476f9f93b15aacb543de41097175b04197d47533bb764393ff4981821d9060200160405180910390a350505050505050565b5f5f6117358585856121d6565b90506001600160a01b0381166117915761178c84600880545f838152600960205260408120829055600182018355919091527ff3f7a9fe364faab93b216da50a3214154f22a0a2b415b23a84c8169e8b636ee30155565b6117b4565b846001600160a01b0316816001600160a01b0316146117b4576117b481856122c8565b6001600160a01b0385166117d0576117cb84612345565b6117f3565b846001600160a01b0316816001600160a01b0316146117f3576117f385856123ec565b949350505050565b600a546001600160a01b0316331461184e5760405162461bcd60e51b815260206004820152601660248201527527b7363c9031b0b63630b1363290313c9037bbb732b960511b60448201526064016109c4565b565b60607f92fd13387c7fe7befbc38d303d6468778fb9731bc4583f17d92989c6fcfdeaaa8260405160240161188991511515815260200190565b60408051601f198184030181529190526020810180516001600160e01b03166001600160e01b03199093169290921790915292915050565b6001600160a01b0383166118ea5760405163a9fbf51f60e01b81525f60048201526024016109c4565b6001600160a01b03821661191c57604051630b61174360e31b81526001600160a01b03831660048201526024016109c4565b6001600160a01b038381165f81815260056020908152604080832094871680845294825291829020805460ff191686151590811790915591519182527f17307eab39ab6107e8899845ad3d59bd9653f200f220920489ca2b5937696c31910160405180910390a3505050565b6001600160a01b0383163b15611aa957604051630a85bd0160e11b81526001600160a01b0384169063150b7a02906119ca908890889087908790600401612de8565b6020604051808303815f875af1925050508015611a04575060408051601f3d908101601f19168201909252611a0191810190612e24565b60015b611a6b573d808015611a31576040519150601f19603f3d011682016040523d82523d5f602084013e611a36565b606091505b5080515f03611a6357604051633250574960e11b81526001600160a01b03851660048201526024016109c4565b805160208201fd5b6001600160e01b03198116630a85bd0160e11b14611aa757604051633250574960e11b81526001600160a01b03851660048201526024016109c4565b505b5050505050565b60605f611abc8361243a565b60010190505f8167ffffffffffffffff811115611adb57611adb6129c2565b6040519080825280601f01601f191660200182016040528015611b05576020820181803683370190505b5090508181016020015b5f19016f181899199a1a9b1b9c1cb0b131b232b360811b600a86061a8153600a8504945084611b0f57509392505050565b606060021960ff831601611b735750506040805180820190915260098152684c4547454e4441525960b81b602082015290565b60011960ff831601611b9f5750506040805180820190915260048152634550494360e01b602082015290565b5f1960ff831601611bca5750506040805180820190915260048152635241524560e01b602082015290565b505060408051808201909152600681526521a7a6a6a7a760d11b602082015290565b60408051602a80825260608281019093525f9190602082018180368337019050509050600360fc1b815f81518110611c2657611c26612b1b565b60200101906001600160f81b03191690815f1a905350600f60fb1b81600181518110611c5457611c54612b1b565b60200101906001600160f81b03191690815f1a9053505f5b6014811015611d6f575f611c81826013612e3f565b611c8c906008612b6a565b611c97906002612f35565b611caa906001600160a01b038716612b57565b60f81b90505f60108260f81c611cc09190612f40565b90505f611cd2601060f885901c612f61565b9050611cdd82612511565b85611ce9866002612b6a565b611cf4906002612dd5565b81518110611d0457611d04612b1b565b60200101906001600160f81b03191690815f1a905350611d2381612511565b85611d2f866002612b6a565b611d3a906003612dd5565b81518110611d4a57611d4a612b1b565b60200101906001600160f81b03191690815f1a9053505060019092019150611c6c9050565b5092915050565b606060021960ff841601611d9457611d8d8261253d565b90506108bd565b60011960ff841601611da957611d8d8261256e565b5f1960ff841601611dbd57611d8d8261257f565b611dc682612590565b9392505050565b60606108bd825f6125ab565b336001600160a01b03821603611e315760405162461bcd60e51b815260206004820152601760248201527f43616e6e6f74207472616e7366657220746f2073656c6600000000000000000060448201526064016109c4565b600b80546001600160a01b0319166001600160a01b03838116918217909255600a54604051919216907fed8889f560326eb138920d842192f0eb3dd22b4f139c87a2c57538e05bae1278905f90a350565b8080611e9657506001600160a01b03821615155b15611f57575f611ea584611513565b90506001600160a01b03831615801590611ed15750826001600160a01b0316816001600160a01b031614155b8015611ee45750611ee28184611446565b155b15611f0d5760405163a9fbf51f60e01b81526001600160a01b03841660048201526024016109c4565b8115611f555783856001600160a01b0316826001600160a01b03167f8c5be1e5ebec7d5bd14f71427d1e84f3dd0314c0f7b2291e5b200ac8c7c3b92560405160405180910390a45b505b50505f90815260046020526040902080546001600160a01b0319166001600160a01b0392909216919091179055565b5f8115611fc7576006831015611f9e575060036108bd565b6012831015611faf575060026108bd565b602b831015611fc0575060016108bd565b505f6108bd565b6003831015611fd8575060036108bd565b600f831015611fe9575060026108bd565b6028831015611ffa575060016108bd565b505f92915050565b5f6120106201518042612b57565b6001600160a01b0383165f9081526012602052604090205490915081810361203757505050565b6001600160a01b0383165f9081526013602052604081205490829003612077576001600160a01b0384165f908152601360205260409020600190556120d7565b612082600184612e3f565b82036120bb576001600160a01b0384165f9081526013602052604081208054600192906120b0908490612dd5565b909155506120d79050565b6001600160a01b0384165f908152601360205260409020600190555b6001600160a01b0384165f9081526012602090815260408083208690556013909152902054600314801561210c575080600314155b15610a60576001600160a01b0384165f818152601460209081526040808320805460ff1916600117905560138252918290205491519182527ff26254ba78e76f6b8ac0cf938bf7a96ccc9544c432cf148e1db1e0c85abc703b910160405180910390a250505050565b6001600160a01b03821661219e57604051633250574960e11b81525f60048201526024016109c4565b5f6121aa83835f611728565b90506001600160a01b038116156109d8576040516339e3563760e11b81525f60048201526024016109c4565b5f828152600260205260408120546001600160a01b03908116908316156122025761220281848661272a565b6001600160a01b0381161561223c5761221d5f855f5f611e82565b6001600160a01b0381165f90815260036020526040902080545f190190555b6001600160a01b0385161561226a576001600160a01b0385165f908152600360205260409020805460010190555b5f8481526002602052604080822080546001600160a01b0319166001600160a01b0389811691821790925591518793918516917fddf252ad1be2c89b69c2b068fc378daa952ba7f163c4a11628f55a4df523b3ef91a4949350505050565b5f6122d283610c38565b5f838152600760209081526040808320546001600160a01b0388168452600690925290912091925090818314612327575f83815260208281526040808320548584528184208190558352600790915290208290555b5f938452600760209081526040808620869055938552525081205550565b6008545f9061235690600190612e3f565b5f838152600960205260408120546008805493945090928490811061237d5761237d612b1b565b905f5260205f2001549050806008838154811061239c5761239c612b1b565b5f9182526020808320909101929092558281526009909152604080822084905585825281205560088054806123d3576123d3612f82565b600190038181905f5260205f20015f9055905550505050565b5f60016123f884610c38565b6124029190612e3f565b6001600160a01b039093165f908152600660209081526040808320868452825280832085905593825260079052919091209190915550565b5f8072184f03e93ff9f4daa797ed6e38ed64bf6a1f0160401b83106124785772184f03e93ff9f4daa797ed6e38ed64bf6a1f0160401b830492506040015b6d04ee2d6d415b85acef810000000083106124a4576d04ee2d6d415b85acef8100000000830492506020015b662386f26fc1000083106124c257662386f26fc10000830492506010015b6305f5e10083106124da576305f5e100830492506008015b61271083106124ee57612710830492506004015b60648310612500576064830492506002015b600a83106108bd5760010192915050565b5f600a8260ff16101561253257612529826030612f96565b60f81b92915050565b612529826057612f96565b606061254882611ab0565b6040516020016125589190613062565b6040516020818303038152906040529050919050565b606060405160200161255890613342565b606060405160200161255890613729565b606061259b82611ab0565b604051602001612558919061395f565b606082515f036125c9575060408051602081019091525f81526108bd565b5f826125f9576003845160026125df9190612dd5565b6125e99190612b57565b6125f4906004612b6a565b61261e565b6003845160046126099190612b6a565b612614906002612dd5565b61261e9190612b57565b905060405191507f4142434445464748494a4b4c4d4e4f505152535455565758595a616263646566601f5261067083027f6768696a6b6c6d6e6f707172737475767778797a303132333435363738392b2f18603f526020820181810185865187016020810180515f82525b828410156126dc576003840193508351603f8160121c16518753600187019650603f81600c1c16518753600187019650603f8160061c16518753600187019650603f811651875350600186019550612689565b90525085905061271d5760038651066001811461270057600281146127135761271b565b603d6001840353603d600284035361271b565b603d60018403535b505b9183525060405292915050565b61273583838361278e565b6109d8576001600160a01b03831661276357604051637e27328960e01b8152600481018290526024016109c4565b60405163177e802f60e01b81526001600160a01b0383166004820152602481018290526044016109c4565b5f6001600160a01b038316158015906117f35750826001600160a01b0316846001600160a01b031614806127c757506127c78484611446565b806117f35750505f908152600460205260409020546001600160a01b03908116911614919050565b6001600160e01b0319811681146114c1575f5ffd5b5f60208284031215612814575f5ffd5b8135611dc6816127ef565b5f81518084528060208401602086015e5f602082860101526020601f19601f83011685010191505092915050565b602081525f611dc6602083018461281f565b5f6020828403121561286f575f5ffd5b5035919050565b6001600160a01b03811681146114c1575f5ffd5b5f5f6040838503121561289b575f5ffd5b82356128a681612876565b946020939093013593505050565b5f602082840312156128c4575f5ffd5b8135611dc681612876565b5f5f5f604084860312156128e1575f5ffd5b83359250602084013567ffffffffffffffff8111156128fe575f5ffd5b8401601f8101861361290e575f5ffd5b803567ffffffffffffffff811115612924575f5ffd5b8660208260051b8401011115612938575f5ffd5b939660209190910195509293505050565b5f5f5f6060848603121561295b575f5ffd5b833561296681612876565b9250602084013561297681612876565b929592945050506040919091013590565b5f5f60408385031215612998575f5ffd5b82356129a381612876565b9150602083013580151581146129b7575f5ffd5b809150509250929050565b634e487b7160e01b5f52604160045260245ffd5b5f5f5f5f608085870312156129e9575f5ffd5b84356129f481612876565b93506020850135612a0481612876565b925060408501359150606085013567ffffffffffffffff811115612a26575f5ffd5b8501601f81018713612a36575f5ffd5b803567ffffffffffffffff811115612a5057612a506129c2565b604051601f8201601f19908116603f0116810167ffffffffffffffff81118282101715612a7f57612a7f6129c2565b604052818152828201602001891015612a96575f5ffd5b816020840160208301375f6020838301015280935050505092959194509250565b5f5f60408385031215612ac8575f5ffd5b8235612ad381612876565b915060208301356129b781612876565b600181811c90821680612af757607f821691505b602082108103612b1557634e487b7160e01b5f52602260045260245ffd5b50919050565b634e487b7160e01b5f52603260045260245ffd5b634e487b7160e01b5f52601260045260245ffd5b634e487b7160e01b5f52601160045260245ffd5b5f82612b6557612b65612b2f565b500490565b80820281158282048414176108bd576108bd612b43565b5f60018201612b9257612b92612b43565b5060010190565b60208152815160208201526020820151604082015261ffff604083015116606082015263ffffffff606083015116608082015263ffffffff60808301511660a08201525f60a083015160c0808401526117f360e084018261281f565b5f60208284031215612c05575f5ffd5b5051919050565b5f81518060208401855e5f93019283525090919050565b6d4c6f6f742053637261746368202360901b81525f612c45600e830185612c0c565b6201016960ed1b8152612c5b6003820185612c0c565b95945050505050565b7f412070726f7661626c792066616972206f6e2d636861696e207363726174636881526e01031b0b93217102930b934ba3c9d1608d1b60208201525f612cad602f830185612c0c565b6b0171026b4b73a32b210313c960a51b8152612ccc600c820185612c0c565b7f2e20506f776572656420627920436861696e6c696e6b205652462e00000000008152601b0195945050505050565b683d913730b6b2911d1160b91b81525f612d186009830186612c0c565b701116113232b9b1b934b83a34b7b7111d1160791b8152612d3c6011820186612c0c565b90507f222c22696d616765223a22646174613a696d6167652f7376672b786d6c3b62618152641cd94d8d0b60da1b6020820152612d7c6025820185612c0c565b61227d60f01b81526002019695505050505050565b7f646174613a6170706c69636174696f6e2f6a736f6e3b6261736536342c00000081525f611dc6601d830184612c0c565b5f82612dd057612dd0612b2f565b500690565b808201808211156108bd576108bd612b43565b6001600160a01b03858116825284166020820152604081018390526080606082018190525f90612e1a9083018461281f565b9695505050505050565b5f60208284031215612e34575f5ffd5b8151611dc6816127ef565b818103818111156108bd576108bd612b43565b6001815b6001841115612e8d57808504811115612e7157612e71612b43565b6001841615612e7f57908102905b60019390931c928002612e56565b935093915050565b5f82612ea3575060016108bd565b81612eaf57505f6108bd565b8160018114612ec55760028114612ecf57612eeb565b60019150506108bd565b60ff841115612ee057612ee0612b43565b50506001821b6108bd565b5060208310610133831016604e8410600b8410161715612f0e575081810a6108bd565b612f1a5f198484612e52565b805f1904821115612f2d57612f2d612b43565b029392505050565b5f611dc68383612e95565b5f60ff831680612f5257612f52612b2f565b8060ff84160491505092915050565b5f60ff831680612f7357612f73612b2f565b8060ff84160691505092915050565b634e487b7160e01b5f52603160045260245ffd5b60ff81811683821601908111156108bd576108bd612b43565b7f3c73766720786d6c6e733d22687474703a2f2f7777772e77332e6f72672f323081527f30302f737667222077696474683d2234303022206865696768743d223430302260208201527f2076696577426f783d223020302034303020343030223e000000000000000000604082015260570190565b7f3c726563742077696474683d2234303022206865696768743d2234303022206681526b34b6361e911198181811179f60a11b6020820152602c0190565b5f61306c82612faf565b7f3c646566733e3c7061747465726e2069643d2270222077696474683d2238222081527f6865696768743d223822207061747465726e556e6974733d227573657253706160208201526831b2a7b72ab9b2911f60b91b60408201527f3c726563742077696474683d223422206865696768743d2234222066696c6c3d60498201527f2223333333222f3e3c7265637420783d22342220793d2234222077696474683d60698201527f223422206865696768743d2234222066696c6c3d2223333333222f3e3c2f706160898201526c3a3a32b9371f1e17b232b3399f60991b60a982015261315b60b68201613024565b7f3c7265637420783d2232302220793d223230222077696474683d22333630222081527f6865696768743d22333630222066696c6c3d226e6f6e6522207374726f6b653d60208201527f222366666437303022207374726f6b652d77696474683d2238222f3e0000000060408201527f3c7265637420783d2234302220793d223430222077696474683d223332302220605c8201527f6865696768743d22333230222066696c6c3d2275726c2823702922206f706163607c8201526a34ba3c9e9118171a11179f60a91b609c8201527f3c7465787420783d223230302220793d223139302220746578742d616e63686f60a78201525f516020613bf65f395f51905f5260c78201527f652220666f6e742d73697a653d223234222066696c6c3d22236536333934362260e7820152701f2622a3a2a72220a92c9e17ba32bc3a1f60791b610107820152905061332461331e61011883017f3c7465787420783d223230302220793d223233302220746578742d616e63686f81525f516020613bf65f395f51905f5260208201527f652220666f6e742d73697a653d223136222066696c6c3d2223666664373030226040820152613e2360f01b606082015260620190565b85612c0c565b6c1e17ba32bc3a1f1e17b9bb339f60991b8152600d01949350505050565b5f61335461334f83612faf565b613024565b7f3c6c696e652078313d22323030222079313d22323030222078323d223230302281527f2079323d22343022207374726f6b653d222366666622207374726f6b652d776960208201527f6474683d2232222f3e3c6c696e652078313d22323030222079313d223230302260408201527f2078323d22333630222079323d2232303022207374726f6b653d2223666666226060820152721039ba3937b5b296bbb4b23a341e911911179f60691b60808201527f3c6c696e652078313d22323030222079313d22323030222078323d223230302260938201527f2079323d2233363022207374726f6b653d222366666622207374726f6b652d7760b38201527f696474683d2232222f3e3c6c696e652078313d22323030222079313d2232303060d38201527f222078323d223430222079323d2232303022207374726f6b653d22236666662260f3820152721039ba3937b5b296bbb4b23a341e911911179f60691b61011382015261371361369f61363761358261012685017f3c6c696e652078313d22323030222079313d22323030222078323d223332302281527f2079323d22383022207374726f6b653d222366666622207374726f6b652d776960208201527f6474683d2232222f3e3c6c696e652078313d22323030222079313d223230302260408201527f2078323d22333230222079323d2233323022207374726f6b653d2223666666226060820152721039ba3937b5b296bbb4b23a341e911911179f60691b608082015260930190565b7f3c6c696e652078313d22323030222079313d22323030222078323d223830222081527f79323d2233323022207374726f6b653d222366666622207374726f6b652d776960208201527f6474683d2232222f3e3c6c696e652078313d22323030222079313d223230302260408201527f2078323d223830222079323d22383022207374726f6b653d22236666662220736060820152703a3937b5b296bbb4b23a341e911911179f60791b608082015260910190565b7f3c636972636c652063783d22323030222063793d223230302220723d2237302281527f2066696c6c3d226e6f6e6522207374726f6b653d22233963323762302220737460208201526f3937b5b296bbb4b23a341e911a91179f60811b604082015260500190565b7f3c7465787420783d223230302220793d223231302220746578742d616e63686f81525f516020613bf65f395f51905f5260208201527f652220666f6e742d73697a653d223238222066696c6c3d2223666666223e455060408201526824a19e17ba32bc3a1f60b91b606082015260690190565b651e17b9bb339f60d11b81526006019392505050565b5f61373382612faf565b7f3c646566733e3c7061747465726e2069643d2273222077696474683d2232302281527f206865696768743d22323022207061747465726e556e6974733d22757365725360208201527f706163654f6e55736522207061747465726e5472616e73666f726d3d22726f7460408201526830ba32941a1a94911f60b91b60608201527f3c726563742077696474683d22313022206865696768743d223230222066696c60698201527f6c3d2223303030222f3e3c2f7061747465726e3e3c2f646566733e000000000060898201527f3c726563742077696474683d2234303022206865696768743d2234303022206660a482018190526e34b6361e9111b3333231199991179f60891b60c483015260d38201527f696c6c3d2275726c2823732922206f7061636974793d22302e3135222f3e000060f38201527f3c7265637420783d2234302220793d223430222077696474683d2233323022206101118201527f6865696768743d22333230222066696c6c3d226e6f6e6522207374726f6b653d6101318201527f222330303636636322207374726f6b652d77696474683d2236222f3e000000006101518201527f3c7465787420783d223230302220793d223231302220746578742d616e63686f61016d8201525f516020613bf65f395f51905f5261018d8201527f652220666f6e742d73697a653d223236222066696c6c3d2223303030223e52416101ad8201526829229e17ba32bc3a1f60b91b6101cd8201526101d68101613713565b5f61396982612faf565b7f3c646566733e3c7061747465726e2069643d226367222077696474683d22323081527f22206865696768743d22323022207061747465726e556e6974733d227573657260208201526b29b830b1b2a7b72ab9b2911f60a11b60408201527f3c7061746820643d224d30203068323076323048307a222066696c6c3d226e6f604c8201527f6e6522207374726f6b653d222330303022207374726f6b652d77696474683d22606c820152741891179f1e17b830ba3a32b9371f1e17b232b3399f60591b608c8201527f3c726563742077696474683d2234303022206865696768743d2234303022206660a182018190526e34b6361e9111b3333333333311179f60891b60c183015260d08201527f696c6c3d2275726c282363672922206f7061636974793d22302e3132222f3e0060f08201527f3c7265637420783d223132302220793d22313730222077696474683d2231363061010f8201527f22206865696768743d223630222066696c6c3d2223396539653965222073747261012f8201527f6f6b653d222330303022207374726f6b652d77696474683d2232222f3e00000061014f8201527f3c7465787420783d223230302220793d223231302220746578742d616e63686f61016c8201525f516020613bf65f395f51905f5261018c8201527f652220666f6e742d73697a653d223232222066696c6c3d2223303030223e434f6101ac8201526a26a6a7a71e17ba32bc3a1f60a91b6101cc82015261332461331e6101d783017f3c7465787420783d223230302220793d223336302220746578742d616e63686f81525f516020613bf65f395f51905f5260208201527f652220666f6e742d73697a653d223134222066696c6c3d2223303030223e23006040820152605f019056fe723d226d6964646c652220666f6e742d66616d696c793d226d6f6e6f73706163a26469706673582212206a911045cd4a5977cf90f2e56b2efb4dc8997cd5aa80a26d32fda4b85282e71f64736f6c634300081c0033",
  "linkReferences": {},
  "deployedLinkReferences": {}
}