{
  "_format": "hh-sol-artifact-1",
  "contractName": "LootScratch",
  "sourceName": "contracts/LootScratch.sol",
  "abi": [
    {
      "inputs": [],
      "stateMutability": "nonpayable",
      "type": "constructor"
    },
    {
      "inputs": [],
      "name": "ERC721EnumerableForbiddenBatchMint",
      "type": "error"
    },
    {
      "inputs": [
        {
          "internalType": "address",
          "name": "sender",
          "type": "address"
        },
        {
          "internalType": "uint256",
          "name": "tokenId",
          "type": "uint256"
        },
        {
          "internalType": "address",
          "name": "owner",
          "type": "address"
        }
      ],
      "name": "ERC721IncorrectOwner",
      "type": "error"
    },
    {
      "inputs": [
        {
          "internalType": "address",
          "name": "operator",
          "type": "address"
        },
        {
          "internalType": "uint256",
          "name": "tokenId",
          "type": "uint256"
        }
      ],
      "name": "ERC721InsufficientApproval",
      "type": "error"
    },
    {
      "inputs": [
        {
          "internalType": "address",
          "name": "approver",
          "type": "address"
        }
      ],
      "name": "ERC721InvalidApprover",
      "type": "error"
    },
    {
      "inputs": [
        {
          "internalType": "address",
          "name": "operator",
          "type": "address"
        }
      ],
      "name": "ERC721InvalidOperator",
      "type": "error"
    },
    {
      "inputs": [
        {
          "internalType": "address",
          "name": "owner",
          "type": "address"
        }
      ],
      "name": "ERC721InvalidOwner",
      "type": "error"
    },
    {
      "inputs": [
        {
          "internalType": "address",
          "name": "receiver",
          "type": "address"
        }
      ],
      "name": "ERC721InvalidReceiver",
      "type": "error"
    },
    {
      "inputs": [
        {
          "internalType": "address",
          "name": "sender",
          "type": "address"
        }
      ],
      "name": "ERC721InvalidSender",
      "type": "error"
    },
    {
      "inputs": [
        {
          "internalType": "uint256",
          "name": "tokenId",
          "type": "uint256"
        }
      ],
      "name": "ERC721NonexistentToken",
      "type": "error"
    },
    {
      "inputs": [
        {
          "internalType": "address",
          "name": "owner",
          "type": "address"
        },
        {
          "internalType": "uint256",
          "name": "index",
          "type": "uint256"
        }
      ],
      "name": "ERC721OutOfBoundsIndex",
      "type": "error"
    },
    {
      "inputs": [],
      "name": "LootScratch__DailyLimit",
      "type": "error"
    },
    {
      "inputs": [],
      "name": "LootScratch__Paused",
      "type": "error"
    },
    {
      "inputs": [],
      "name": "LootScratch__ReferralFailed",
      "type": "error"
    },
    {
      "inputs": [],
      "name": "LootScratch__WrongPayment",
      "type": "error"
    },
    {
      "inputs": [
        {
          "internalType": "address",
          "name": "owner",
          "type": "address"
        }
      ],
      "name": "OwnableInvalidOwner",
      "type": "error"
    },
    {
      "inputs": [
        {
          "internalType": "address",
          "name": "account",
          "type": "address"
        }
      ],
      "name": "OwnableUnauthorizedAccount",
      "type": "error"
    },
    {
      "anonymous": false,
      "inputs": [
        {
          "indexed": true,
          "internalType": "address",
          "name": "owner",
          "type": "address"
        },
        {
          "indexed": true,
          "internalType": "address",
          "name": "approved",
          "type": "address"
        },
        {
          "indexed": true,
          "internalType": "uint256",
          "name": "tokenId",
          "type": "uint256"
        }
      ],
      "name": "Approval",
      "type": "event"
    },
    {
      "anonymous": false,
      "inputs": [
        {
          "indexed": true,
          "internalType": "address",
          "name": "owner",
          "type": "address"
        },
        {
          "indexed": true,
          "internalType": "address",
          "name": "operator",
          "type": "address"
        },
        {
          "indexed": false,
          "internalType": "bool",
          "name": "approved",
          "type": "bool"
        }
      ],
      "name": "ApprovalForAll",
      "type": "event"
    },
    {
      "anonymous": false,
      "inputs": [
        {
          "indexed": true,
          "internalType": "address",
          "name": "player",
          "type": "address"
        },
        {
          "indexed": true,
          "internalType": "uint256",
          "name": "tokenId",
          "type": "uint256"
        }
      ],
      "name": "LegendaryMinted",
      "type": "event"
    },
    {
      "anonymous": false,
      "inputs": [
        {
          "indexed": false,
          "internalType": "uint256",
          "name": "newFee",
          "type": "uint256"
        }
      ],
      "name": "MintFeeUpdated",
      "type": "event"
    },
    {
      "anonymous": false,
      "inputs": [
        {
          "indexed": true,
          "internalType": "address",
          "name": "previousOwner",
          "type": "address"
        },
        {
          "indexed": true,
          "internalType": "address",
          "name": "newOwner",
          "type": "address"
        }
      ],
      "name": "OwnershipTransferred",
      "type": "event"
    },
    {
      "anonymous": false,
      "inputs": [
        {
          "indexed": true,
          "internalType": "address",
          "name": "player",
          "type": "address"
        },
        {
          "indexed": true,
          "internalType": "uint256",
          "name": "tokenId",
          "type": "uint256"
        },
        {
          "indexed": false,
          "internalType": "uint8",
          "name": "rarity",
          "type": "uint8"
        }
      ],
      "name": "Scratched",
      "type": "event"
    },
    {
      "anonymous": false,
      "inputs": [
        {
          "indexed": true,
          "internalType": "address",
          "name": "player",
          "type": "address"
        },
        {
          "indexed": false,
          "internalType": "uint256",
          "name": "streakDays",
          "type": "uint256"
        }
      ],
      "name": "StreakAchieved",
      "type": "event"
    },
    {
      "anonymous": false,
      "inputs": [
        {
          "indexed": true,
          "internalType": "address",
          "name": "from",
          "type": "address"
        },
        {
          "indexed": true,
          "internalType": "address",
          "name": "to",
          "type": "address"
        },
        {
          "indexed": true,
          "internalType": "uint256",
          "name": "tokenId",
          "type": "uint256"
        }
      ],
      "name": "Transfer",
      "type": "event"
    },
    {
      "anonymous": false,
      "inputs": [
        {
          "indexed": true,
          "internalType": "address",
          "name": "to",
          "type": "address"
        },
        {
          "indexed": false,
          "internalType": "uint256",
          "name": "amount",
          "type": "uint256"
        }
      ],
      "name": "Withdrawal",
      "type": "event"
    },
    {
      "inputs": [],
      "name": "BPS_DENOMINATOR",
      "outputs": [
        {
          "internalType": "uint256",
          "name": "",
          "type": "uint256"
        }
      ],
      "stateMutability": "view",
      "type": "function"
    },
    {
      "inputs": [],
      "name": "DAILY_LIMIT",
      "outputs": [
        {
          "internalType": "uint256",
          "name": "",
          "type": "uint256"
        }
      ],
      "stateMutability": "view",
      "type": "function"
    },
    {
      "inputs": [],
      "name": "RARITY_COMMON",
      "outputs": [
        {
          "internalType": "uint8",
          "name": "",
          "type": "uint8"
        }
      ],
      "stateMutability": "view",
      "type": "function"
    },
    {
      "inputs": [],
      "name": "RARITY_EPIC",
      "outputs": [
        {
          "internalType": "uint8",
          "name": "",
          "type": "uint8"
        }
      ],
      "stateMutability": "view",
      "type": "function"
    },
    {
      "inputs": [],
      "name": "RARITY_LEGENDARY",
      "outputs": [
        {
          "internalType": "uint8",
          "name": "",
          "type": "uint8"
        }
      ],
      "stateMutability": "view",
      "type": "function"
    },
    {
      "inputs": [],
      "name": "RARITY_RARE",
      "outputs": [
        {
          "internalType": "uint8",
          "name": "",
          "type": "uint8"
        }
      ],
      "stateMutability": "view",
      "type": "function"
    },
    {
      "inputs": [],
      "name": "REFERRAL_BPS",
      "outputs": [
        {
          "internalType": "uint256",
          "name": "",
          "type": "uint256"
        }
      ],
      "stateMutability": "view",
      "type": "function"
    },
    {
      "inputs": [],
      "name": "SECONDS_PER_DAY",
      "outputs": [
        {
          "internalType": "uint256",
          "name": "",
          "type": "uint256"
        }
      ],
      "stateMutability": "view",
      "type": "function"
    },
    {
      "inputs": [
        {
          "internalType": "address",
          "name": "to",
          "type": "address"
        },
        {
          "internalType": "uint256",
          "name": "tokenId",
          "type": "uint256"
        }
      ],
      "name": "approve",
      "outputs": [],
      "stateMutability": "nonpayable",
      "type": "function"
    },
    {
      "inputs": [
        {
          "internalType": "address",
          "name": "owner",
          "type": "address"
        }
      ],
      "name": "balanceOf",
      "outputs": [
        {
          "internalType": "uint256",
          "name": "",
          "type": "uint256"
        }
      ],
      "stateMutability": "view",
      "type": "function"
    },
    {
      "inputs": [
        {
          "internalType": "uint256",
          "name": "tokenId",
          "type": "uint256"
        }
      ],
      "name": "getApproved",
      "outputs": [
        {
          "internalType": "address",
          "name": "",
          "type": "address"
        }
      ],
      "stateMutability": "view",
      "type": "function"
    },
    {
      "inputs": [
        {
          "internalType": "address",
          "name": "owner",
          "type": "address"
        },
        {
          "internalType": "address",
          "name": "operator",
          "type": "address"
        }
      ],
      "name": "isApprovedForAll",
      "outputs": [
        {
          "internalType": "bool",
          "name": "",
          "type": "bool"
        }
      ],
      "stateMutability": "view",
      "type": "function"
    },
    {
      "inputs": [
        {
          "internalType": "address",
          "name": "",
          "type": "address"
        }
      ],
      "name": "legendaryBoostPending",
      "outputs": [
        {
          "internalType": "bool",
          "name": "",
          "type": "bool"
        }
      ],
      "stateMutability": "view",
      "type": "function"
    },
    {
      "inputs": [
        {
          "internalType": "address",
          "name": "",
          "type": "address"
        }
      ],
      "name": "legendaryMinted",
      "outputs": [
        {
          "internalType": "uint256",
          "name": "",
          "type": "uint256"
        }
      ],
      "stateMutability": "view",
      "type": "function"
    },
    {
      "inputs": [],
      "name": "mintFee",
      "outputs": [
        {
          "internalType": "uint256",
          "name": "",
          "type": "uint256"
        }
      ],
      "stateMutability": "view",
      "type": "function"
    },
    {
      "inputs": [],
      "name": "name",
      "outputs": [
        {
          "internalType": "string",
          "name": "",
          "type": "string"
        }
      ],
      "stateMutability": "view",
      "type": "function"
    },
    {
      "inputs": [],
      "name": "owner",
      "outputs": [
        {
          "internalType": "address",
          "name": "",
          "type": "address"
        }
      ],
      "stateMutability": "view",
      "type": "function"
    },
    {
      "inputs": [
        {
          "internalType": "uint256",
          "name": "tokenId",
          "type": "uint256"
        }
      ],
      "name": "ownerOf",
      "outputs": [
        {
          "internalType": "address",
          "name": "",
          "type": "address"
        }
      ],
      "stateMutability": "view",
      "type": "function"
    },
    {
      "inputs": [],
      "name": "pause",
      "outputs": [],
      "stateMutability": "nonpayable",
      "type": "function"
    },
    {
      "inputs": [],
      "name": "paused",
      "outputs": [
        {
          "internalType": "bool",
          "name": "",
          "type": "bool"
        }
      ],
      "stateMutability": "view",
      "type": "function"
    },
    {
      "inputs": [],
      "name": "renounceOwnership",
      "outputs": [],
      "stateMutability": "nonpayable",
      "type": "function"
    },
    {
      "inputs": [
        {
          "internalType": "address",
          "name": "from",
          "type": "address"
        },
        {
          "internalType": "address",
          "name": "to",
          "type": "address"
        },
        {
          "internalType": "uint256",
          "name": "tokenId",
          "type": "uint256"
        }
      ],
      "name": "safeTransferFrom",
      "outputs": [],
      "stateMutability": "nonpayable",
      "type": "function"
    },
    {
      "inputs": [
        {
          "internalType": "address",
          "name": "from",
          "type": "address"
        },
        {
          "internalType": "address",
          "name": "to",
          "type": "address"
        },
        {
          "internalType": "uint256",
          "name": "tokenId",
          "type": "uint256"
        },
        {
          "internalType": "bytes",
          "name": "data",
          "type": "bytes"
        }
      ],
      "name": "safeTransferFrom",
      "outputs": [],
      "stateMutability": "nonpayable",
      "type": "function"
    },
    {
      "inputs": [
        {
          "internalType": "address",
          "name": "referrer",
          "type": "address"
        }
      ],
      "name": "scratch",
      "outputs": [],
      "stateMutability": "payable",
      "type": "function"
    },
    {
      "inputs": [
        {
          "internalType": "address",
          "name": "player",
          "type": "address"
        }
      ],
      "name": "scratchesToday",
      "outputs": [
        {
          "internalType": "uint256",
          "name": "",
          "type": "uint256"
        }
      ],
      "stateMutability": "view",
      "type": "function"
    },
    {
      "inputs": [
        {
          "internalType": "address",
          "name": "operator",
          "type": "address"
        },
        {
          "internalType": "bool",
          "name": "approved",
          "type": "bool"
        }
      ],
      "name": "setApprovalForAll",
      "outputs": [],
      "stateMutability": "nonpayable",
      "type": "function"
    },
    {
      "inputs": [
        {
          "internalType": "uint256",
          "name": "newFee",
          "type": "uint256"
        }
      ],
      "name": "setMintFee",
      "outputs": [],
      "stateMutability": "nonpayable",
      "type": "function"
    },
    {
      "inputs": [
        {
          "internalType": "address",
          "name": "player",
          "type": "address"
        }
      ],
      "name": "streakDays",
      "outputs": [
        {
          "internalType": "uint256",
          "name": "",
          "type": "uint256"
        }
      ],
      "stateMutability": "view",
      "type": "function"
    },
    {
      "inputs": [
        {
          "internalType": "bytes4",
          "name": "interfaceId",
          "type": "bytes4"
        }
      ],
      "name": "supportsInterface",
      "outputs": [
        {
          "internalType": "bool",
          "name": "",
          "type": "bool"
        }
      ],
      "stateMutability": "view",
      "type": "function"
    },
    {
      "inputs": [],
      "name": "symbol",
      "outputs": [
        {
          "internalType": "string",
          "name": "",
          "type": "string"
        }
      ],
      "stateMutability": "view",
      "type": "function"
    },
    {
      "inputs": [
        {
          "internalType": "uint256",
          "name": "index",
          "type": "uint256"
        }
      ],
      "name": "tokenByIndex",
      "outputs": [
        {
          "internalType": "uint256",
          "name": "",
          "type": "uint256"
        }
      ],
      "stateMutability": "view",
      "type": "function"
    },
    {
      "inputs": [
        {
          "internalType": "address",
          "name": "owner",
          "type": "address"
        },
        {
          "internalType": "uint256",
          "name": "index",
          "type": "uint256"
        }
      ],
      "name": "tokenOfOwnerByIndex",
      "outputs": [
        {
          "internalType": "uint256",
          "name": "",
          "type": "uint256"
        }
      ],
      "stateMutability": "view",
      "type": "function"
    },
    {
      "inputs": [
        {
          "internalType": "uint256",
          "name": "tokenId",
          "type": "uint256"
        }
      ],
      "name": "tokenRarity",
      "outputs": [
        {
          "internalType": "uint8",
          "name": "",
          "type": "uint8"
        }
      ],
      "stateMutability": "view",
      "type": "function"
    },
    {
      "inputs": [
        {
          "internalType": "uint256",
          "name": "tokenId",
          "type": "uint256"
        }
      ],
      "name": "tokenURI",
      "outputs": [
        {
          "internalType": "string",
          "name": "",
          "type": "string"
        }
      ],
      "stateMutability": "view",
      "type": "function"
    },
    {
      "inputs": [],
      "name": "totalPlayers",
      "outputs": [
        {
          "internalType": "uint256",
          "name": "",
          "type": "uint256"
        }
      ],
      "stateMutability": "view",
      "type": "function"
    },
    {
      "inputs": [],
      "name": "totalScratches",
      "outputs": [
        {
          "internalType": "uint256",
          "name": "",
          "type": "uint256"
        }
      ],
      "stateMutability": "view",
      "type": "function"
    },
    {
      "inputs": [],
      "name": "totalSupply",
      "outputs": [
        {
          "internalType": "uint256",
          "name": "",
          "type": "uint256"
        }
      ],
      "stateMutability": "view",
      "type": "function"
    },
    {
      "inputs": [
        {
          "internalType": "address",
          "name": "from",
          "type": "address"
        },
        {
          "internalType": "address",
          "name": "to",
          "type": "address"
        },
        {
          "internalType": "uint256",
          "name": "tokenId",
          "type": "uint256"
        }
      ],
      "name": "transferFrom",
      "outputs": [],
      "stateMutability": "nonpayable",
      "type": "function"
    },
    {
      "inputs": [
        {
          "internalType": "address",
          "name": "newOwner",
          "type": "address"
        }
      ],
      "name": "transferOwnership",
      "outputs": [],
      "stateMutability": "nonpayable",
      "type": "function"
    },
    {
      "inputs": [],
      "name": "unpause",
      "outputs": [],
      "stateMutability": "nonpayable",
      "type": "function"
    },
    {
      "inputs": [
        {
          "internalType": "address payable",
          "name": "to",
          "type": "address"
        }
      ],
      "name": "withdraw",
      "outputs": [],
      "stateMutability": "nonpayable",
      "type": "function"
    }
  ],
  "bytecode": "0x608060405266038d7ea4c68000600b553480156200001b575f80fd5b50336040518060400160405280600c81526020016b098dedee840a6c6e4c2e8c6d60a31b815250604051806040016040528060048152602001631313d3d560e21b815250815f90816200006f9190620001b0565b5060016200007e8282620001b0565b5050506001600160a01b038116620000af57604051631e4fbdf760e01b81525f600482015260240160405180910390fd5b620000ba81620000c1565b506200027c565b600a80546001600160a01b038381166001600160a01b0319831681179093556040519116919082907f8be0079c531659141344cd1fd0a4f28419497f9722a3daafe3b4186f6b6457e0905f90a35050565b634e487b7160e01b5f52604160045260245ffd5b600181811c908216806200013b57607f821691505b6020821081036200015a57634e487b7160e01b5f52602260045260245ffd5b50919050565b601f821115620001ab57805f5260205f20601f840160051c81016020851015620001875750805b601f840160051c820191505b81811015620001a8575f815560010162000193565b50505b505050565b81516001600160401b03811115620001cc57620001cc62000112565b620001e481620001dd845462000126565b8462000160565b602080601f8311600181146200021a575f8415620002025750858301515b5f19600386901b1c1916600185901b17855562000274565b5f85815260208120601f198616915b828110156200024a5788860151825594840194600190910190840162000229565b50858210156200026857878501515f19600388901b60f8161c191681555b505060018460011b0185555b505050505050565b6135bb806200028a5f395ff3fe60806040526004361061023d575f3560e01c8063715018a611610134578063a22cb465116100b3578063e1a4521811610078578063e1a4521814610660578063e985e9c514610675578063eddd0d9c14610694578063f2fde38b146106b3578063f60cdcf6146106d2578063f83d758b146106e7575f80fd5b8063a22cb465146105c5578063afb0a369146105e4578063b88d4fde14610603578063c874483614610622578063c87b56dd14610641575f80fd5b8063867b4f44116100f9578063867b4f44146105425780638da5cb5b1461055557806395d89b4114610572578063965ede14146105865780639e94bb93146105b1575f80fd5b8063715018a6146104bd57806374f0314f146104d157806378df39a7146104e75780637aad87891461051b5780638456cb591461052e575f80fd5b80632f745c59116101c057806351cff8d91161018557806351cff8d9146104325780635c975abb146104515780636352211e1461046a5780636e8cddea1461048957806370a082311461049e575f80fd5b80632f745c59146103ac5780633f4ba83a146103cb57806342842e0e146103df57806343a93c0e146103fe5780634f6ccce714610413575f80fd5b806313966db51161020657806313966db51461031457806318160ddd14610337578063193bae391461034b57806323b872dd14610379578063248ec32614610398575f80fd5b8062c84c201461024157806301ffc9a71461026c57806306fdde031461029b578063081812fc146102bc578063095ea7b3146102f3575b5f80fd5b34801561024c575f80fd5b50610255600281565b60405160ff90911681526020015b60405180910390f35b348015610277575f80fd5b5061028b61028636600461215c565b6106fb565b6040519015158152602001610263565b3480156102a6575f80fd5b506102af610725565b60405161026391906121c4565b3480156102c7575f80fd5b506102db6102d63660046121d6565b6107b4565b6040516001600160a01b039091168152602001610263565b3480156102fe575f80fd5b5061031261030d366004612201565b6107db565b005b34801561031f575f80fd5b50610329600b5481565b604051908152602001610263565b348015610342575f80fd5b50600854610329565b348015610356575f80fd5b5061028b61036536600461222b565b60126020525f908152604090205460ff1681565b348015610384575f80fd5b50610312610393366004612246565b6107ea565b3480156103a3575f80fd5b50610329600581565b3480156103b7575f80fd5b506103296103c6366004612201565b610878565b3480156103d6575f80fd5b506103126108db565b3480156103ea575f80fd5b506103126103f9366004612246565b6108ef565b348015610409575f80fd5b50610329600c5481565b34801561041e575f80fd5b5061032961042d3660046121d6565b61090e565b34801561043d575f80fd5b5061031261044c36600461222b565b610963565b34801561045c575f80fd5b50600e5461028b9060ff1681565b348015610475575f80fd5b506102db6104843660046121d6565b610a45565b348015610494575f80fd5b506103296101f481565b3480156104a9575f80fd5b506103296104b836600461222b565b610a4f565b3480156104c8575f80fd5b50610312610a94565b3480156104dc575f80fd5b506103296201518081565b3480156104f2575f80fd5b5061032961050136600461222b565b6001600160a01b03165f9081526011602052604090205490565b348015610526575f80fd5b506102555f81565b348015610539575f80fd5b50610312610aa7565b61031261055036600461222b565b610abe565b348015610560575f80fd5b50600a546001600160a01b03166102db565b34801561057d575f80fd5b506102af610dcb565b348015610591575f80fd5b506103296105a036600461222b565b60156020525f908152604090205481565b3480156105bc575f80fd5b50610255600181565b3480156105d0575f80fd5b506103126105df366004612284565b610dda565b3480156105ef575f80fd5b506102556105fe3660046121d6565b610de5565b34801561060e575f80fd5b5061031261061d3660046122d3565b610e05565b34801561062d575f80fd5b5061032961063c36600461222b565b610e1d565b34801561064c575f80fd5b506102af61065b3660046121d6565b610e71565b34801561066b575f80fd5b5061032961271081565b348015610680575f80fd5b5061028b61068f3660046123ac565b610f75565b34801561069f575f80fd5b506103126106ae3660046121d6565b610fa2565b3480156106be575f80fd5b506103126106cd36600461222b565b610fe5565b3480156106dd575f80fd5b50610329600d5481565b3480156106f2575f80fd5b50610255600381565b5f6001600160e01b0319821663780e9d6360e01b148061071f575061071f82611022565b92915050565b60605f8054610733906123d8565b80601f016020809104026020016040519081016040528092919081815260200182805461075f906123d8565b80156107aa5780601f10610781576101008083540402835291602001916107aa565b820191905f5260205f20905b81548152906001019060200180831161078d57829003601f168201915b5050505050905090565b5f6107be82611071565b505f828152600460205260409020546001600160a01b031661071f565b6107e68282336110a9565b5050565b6001600160a01b03821661081857604051633250574960e11b81525f60048201526024015b60405180910390fd5b5f6108248383336110b6565b9050836001600160a01b0316816001600160a01b031614610872576040516364283d7b60e01b81526001600160a01b038086166004830152602482018490528216604482015260640161080f565b50505050565b5f61088283610a4f565b82106108b35760405163295f44f760e21b81526001600160a01b03841660048201526024810183905260440161080f565b506001600160a01b03919091165f908152600660209081526040808320938352929052205490565b6108e3611189565b600e805460ff19169055565b61090983838360405180602001604052805f815250610e05565b505050565b5f61091860085490565b82106109405760405163295f44f760e21b81525f60048201526024810183905260440161080f565b6008828154811061095357610953612410565b905f5260205f2001549050919050565b61096b611189565b60405147905f906001600160a01b0384169083908381818185875af1925050503d805f81146109b5576040519150601f19603f3d011682016040523d82523d5f602084013e6109ba565b606091505b50509050806109fd5760405162461bcd60e51b815260206004820152600f60248201526e1dda5d1a191c985dc819985a5b1959608a1b604482015260640161080f565b826001600160a01b03167f7fcf532c15f0a6db0bd6d0e038bea71d30d808c7d98cb3bf7268a95bf5081b6583604051610a3891815260200190565b60405180910390a2505050565b5f61071f82611071565b5f6001600160a01b038216610a79576040516322718ad960e21b81525f600482015260240161080f565b506001600160a01b03165f9081526003602052604090205490565b610a9c611189565b610aa55f6111b6565b565b610aaf611189565b600e805460ff19166001179055565b600e5460ff1615610ae257604051631d37d41d60e21b815260040160405180910390fd5b600b543414610b0457604051633143f44f60e11b815260040160405180910390fd5b5f610b12620151804261244c565b335f908152601460205260409020549091508114610b4757335f90815260146020908152604080832084905560139091528120555b335f90815260136020526040902054600511610b76576040516305534b8960e21b815260040160405180910390fd5b6001600160a01b03821615801590610b9757506001600160a01b0382163314155b15610c2f575f6127106101f4600b54610bb0919061245f565b610bba919061244c565b90505f836001600160a01b0316826040515f6040518083038185875af1925050503d805f8114610c05576040519150601f19603f3d011682016040523d82523d5f602084013e610c0a565b606091505b5050905080610c2c57604051634538022760e11b815260040160405180910390fd5b50505b335f908152601360205260408120805491610c4983612476565b9091555050600c8054905f610c5d83612476565b9091555050335f908152600f602052604090205460ff16610ca557335f908152600f60205260408120805460ff19166001179055600d805491610c9f83612476565b91905055505b335f9081526012602052604090205460ff168015610cd457335f908152601260205260409020805460ff191690555b5f610cde33611207565b90505f610ceb82846112b5565b9050610cf633611331565b5f610d0060085490565b610d0b90600161248e565b5f818152601660205260409020805460ff191660ff85161790559050610d3133826114a4565b60021960ff831601610d8957335f908152601560205260408120805491610d5783612476565b9091555050604051819033907f4927521b0cc3bde9830bbb3ba60bb83ba1936cd0e22f6a9a1db5ab337269a4d5905f90a35b60405160ff83168152819033907fc48d98476f9f93b15aacb543de41097175b04197d47533bb764393ff4981821d9060200160405180910390a3505050505050565b606060018054610733906123d8565b6107e6338383611505565b5f610def82611071565b50505f9081526016602052604090205460ff1690565b610e108484846107ea565b61087233858585856115cc565b5f80610e2c620151804261244c565b6001600160a01b0384165f908152601460205260409020549091508114610e5557505f92915050565b50506001600160a01b03165f9081526013602052604090205490565b6060610e7c82611071565b505f8281526016602052604081205460ff1690610e9884610a45565b90505f610ea4856116f4565b610ead84611784565b604051602001610ebe9291906124bc565b60405160208183030381529060405290505f610ed984611784565b610ee284611830565b604051602001610ef3929190612513565b60405160208183030381529060405290505f610f0f85886119ba565b90505f8383610f1d84611a0a565b604051602001610f2f939291906125ce565b6040516020818303038152906040529050610f4981611a0a565b604051602001610f59919061268b565b6040516020818303038152906040529650505050505050919050565b6001600160a01b039182165f90815260056020908152604080832093909416825291909152205460ff1690565b610faa611189565b600b8190556040518181527f38fbb1c8b109c430f0c030e7ed076cf5611a307773a4e8e365601e8f8bceaec69060200160405180910390a150565b610fed611189565b6001600160a01b03811661101657604051631e4fbdf760e01b81525f600482015260240161080f565b61101f816111b6565b50565b5f6001600160e01b031982166380ac58cd60e01b148061105257506001600160e01b03198216635b5e139f60e01b145b8061071f57506301ffc9a760e01b6001600160e01b031983161461071f565b5f818152600260205260408120546001600160a01b03168061071f57604051637e27328960e01b81526004810184905260240161080f565b6109098383836001611a16565b5f806110c3858585611b1a565b90506001600160a01b03811661111f5761111a84600880545f838152600960205260408120829055600182018355919091527ff3f7a9fe364faab93b216da50a3214154f22a0a2b415b23a84c8169e8b636ee30155565b611142565b846001600160a01b0316816001600160a01b031614611142576111428185611c0c565b6001600160a01b03851661115e5761115984611c89565b611181565b846001600160a01b0316816001600160a01b031614611181576111818585611d30565b949350505050565b600a546001600160a01b03163314610aa55760405163118cdaa760e01b815233600482015260240161080f565b600a80546001600160a01b038381166001600160a01b0319831681179093556040519116919082907f8be0079c531659141344cd1fd0a4f28419497f9722a3daafe3b4186f6b6457e0905f90a35050565b6001600160a01b0381165f908152601760205260408120805482918261122c83612476565b9091555090506064446112406001436126cf565b4085844261124d60085490565b6040805160208101979097528601949094526bffffffffffffffffffffffff19606093841b16928501929092526074840152609483015260b482015260d401604051602081830303815290604052805190602001205f1c6112ae91906126e2565b9392505050565b5f81156112f65760068310156112cd5750600361071f565b60128310156112de5750600261071f565b602b8310156112ef5750600161071f565b505f61071f565b60038310156113075750600361071f565b600f8310156113185750600261071f565b60288310156113295750600161071f565b505f92915050565b5f61133f620151804261244c565b6001600160a01b0383165f9081526010602052604090205490915081810361136657505050565b6001600160a01b0383165f90815260116020526040812054908290036113a6576001600160a01b0384165f90815260116020526040902060019055611406565b6113b16001846126cf565b82036113ea576001600160a01b0384165f9081526011602052604081208054600192906113df90849061248e565b909155506114069050565b6001600160a01b0384165f908152601160205260409020600190555b6001600160a01b0384165f9081526010602090815260408083208690556011909152902054600314801561143b575080600314155b15610872576001600160a01b0384165f818152601260209081526040808320805460ff1916600117905560118252918290205491519182527ff26254ba78e76f6b8ac0cf938bf7a96ccc9544c432cf148e1db1e0c85abc703b910160405180910390a250505050565b6001600160a01b0382166114cd57604051633250574960e11b81525f600482015260240161080f565b5f6114d983835f6110b6565b90506001600160a01b03811615610909576040516339e3563760e11b81525f600482015260240161080f565b6001600160a01b03831661152e5760405163a9fbf51f60e01b81525f600482015260240161080f565b6001600160a01b03821661156057604051630b61174360e31b81526001600160a01b038316600482015260240161080f565b6001600160a01b038381165f81815260056020908152604080832094871680845294825291829020805460ff191686151590811790915591519182527f17307eab39ab6107e8899845ad3d59bd9653f200f220920489ca2b5937696c31910160405180910390a3505050565b6001600160a01b0383163b156116ed57604051630a85bd0160e11b81526001600160a01b0384169063150b7a029061160e9088908890879087906004016126f5565b6020604051808303815f875af1925050508015611648575060408051601f3d908101601f1916820190925261164591810190612731565b60015b6116af573d808015611675576040519150601f19603f3d011682016040523d82523d5f602084013e61167a565b606091505b5080515f036116a757604051633250574960e11b81526001600160a01b038516600482015260240161080f565b805160208201fd5b6001600160e01b03198116630a85bd0160e11b146116eb57604051633250574960e11b81526001600160a01b038516600482015260240161080f565b505b5050505050565b60605f61170083611d7e565b60010190505f8167ffffffffffffffff81111561171f5761171f6122bf565b6040519080825280601f01601f191660200182016040528015611749576020820181803683370190505b5090508181016020015b5f19016f181899199a1a9b1b9c1cb0b131b232b360811b600a86061a8153600a850494508461175357509392505050565b606060021960ff8316016117b75750506040805180820190915260098152684c4547454e4441525960b81b602082015290565b60011960ff8316016117e35750506040805180820190915260048152634550494360e01b602082015290565b5f1960ff83160161180e5750506040805180820190915260048152635241524560e01b602082015290565b505060408051808201909152600681526521a7a6a6a7a760d11b602082015290565b60408051602a80825260608281019093525f9190602082018180368337019050509050600360fc1b815f8151811061186a5761186a612410565b60200101906001600160f81b03191690815f1a905350600f60fb1b8160018151811061189857611898612410565b60200101906001600160f81b03191690815f1a9053505f5b60148110156119b3575f6118c58260136126cf565b6118d090600861245f565b6118db90600261282c565b6118ee906001600160a01b03871661244c565b60f81b90505f60108260f81c6119049190612837565b90505f611916601060f885901c612858565b905061192182611e55565b8561192d86600261245f565b61193890600261248e565b8151811061194857611948612410565b60200101906001600160f81b03191690815f1a90535061196781611e55565b8561197386600261245f565b61197e90600361248e565b8151811061198e5761198e612410565b60200101906001600160f81b03191690815f1a90535050600190920191506118b09050565b5092915050565b606060021960ff8416016119d8576119d182611e81565b905061071f565b60011960ff8416016119ed576119d182611eb2565b5f1960ff841601611a01576119d182611ecd565b6112ae82611ee8565b606061071f825f611f03565b8080611a2a57506001600160a01b03821615155b15611aeb575f611a3984611071565b90506001600160a01b03831615801590611a655750826001600160a01b0316816001600160a01b031614155b8015611a785750611a768184610f75565b155b15611aa15760405163a9fbf51f60e01b81526001600160a01b038416600482015260240161080f565b8115611ae95783856001600160a01b0316826001600160a01b03167f8c5be1e5ebec7d5bd14f71427d1e84f3dd0314c0f7b2291e5b200ac8c7c3b92560405160405180910390a45b505b50505f90815260046020526040902080546001600160a01b0319166001600160a01b0392909216919091179055565b5f828152600260205260408120546001600160a01b0390811690831615611b4657611b46818486612082565b6001600160a01b03811615611b8057611b615f855f80611a16565b6001600160a01b0381165f90815260036020526040902080545f190190555b6001600160a01b03851615611bae576001600160a01b0385165f908152600360205260409020805460010190555b5f8481526002602052604080822080546001600160a01b0319166001600160a01b0389811691821790925591518793918516917fddf252ad1be2c89b69c2b068fc378daa952ba7f163c4a11628f55a4df523b3ef91a4949350505050565b5f611c1683610a4f565b5f838152600760209081526040808320546001600160a01b0388168452600690925290912091925090818314611c6b575f83815260208281526040808320548584528184208190558352600790915290208290555b5f938452600760209081526040808620869055938552525081205550565b6008545f90611c9a906001906126cf565b5f8381526009602052604081205460088054939450909284908110611cc157611cc1612410565b905f5260205f20015490508060088381548110611ce057611ce0612410565b5f918252602080832090910192909255828152600990915260408082208490558582528120556008805480611d1757611d17612879565b600190038181905f5260205f20015f9055905550505050565b5f6001611d3c84610a4f565b611d4691906126cf565b6001600160a01b039093165f908152600660209081526040808320868452825280832085905593825260079052919091209190915550565b5f8072184f03e93ff9f4daa797ed6e38ed64bf6a1f0160401b8310611dbc5772184f03e93ff9f4daa797ed6e38ed64bf6a1f0160401b830492506040015b6d04ee2d6d415b85acef81000000008310611de8576d04ee2d6d415b85acef8100000000830492506020015b662386f26fc100008310611e0657662386f26fc10000830492506010015b6305f5e1008310611e1e576305f5e100830492506008015b6127108310611e3257612710830492506004015b60648310611e44576064830492506002015b600a831061071f5760010192915050565b5f600a8260ff161015611e7657611e6d82603061288d565b60f81b92915050565b611e6d82605761288d565b6060611e8c826116f4565b604051602001611e9c919061291b565b6040516020818303038152906040529050919050565b6060611ebd826116f4565b604051602001611e9c9190612c29565b6060611ed8826116f4565b604051602001611e9c9190613098565b6060611ef3826116f4565b604051602001611e9c919061331f565b606082515f03611f21575060408051602081019091525f815261071f565b5f82611f5157600384516002611f37919061248e565b611f41919061244c565b611f4c90600461245f565b611f76565b600384516004611f61919061245f565b611f6c90600261248e565b611f76919061244c565b905060405191507f4142434445464748494a4b4c4d4e4f505152535455565758595a616263646566601f5261067083027f6768696a6b6c6d6e6f707172737475767778797a303132333435363738392b2f18603f526020820181810185865187016020810180515f82525b82841015612034576003840193508351603f8160121c16518753600187019650603f81600c1c16518753600187019650603f8160061c16518753600187019650603f811651875350600186019550611fe1565b90525085905061207557600386510660018114612058576002811461206b57612073565b603d6001840353603d6002840353612073565b603d60018403535b505b9183525060405292915050565b61208d8383836120e6565b610909576001600160a01b0383166120bb57604051637e27328960e01b81526004810182905260240161080f565b60405163177e802f60e01b81526001600160a01b03831660048201526024810182905260440161080f565b5f6001600160a01b038316158015906111815750826001600160a01b0316846001600160a01b0316148061211f575061211f8484610f75565b806111815750505f908152600460205260409020546001600160a01b03908116911614919050565b6001600160e01b03198116811461101f575f80fd5b5f6020828403121561216c575f80fd5b81356112ae81612147565b5f5b83811015612191578181015183820152602001612179565b50505f910152565b5f81518084526121b0816020860160208601612177565b601f01601f19169290920160200192915050565b602081525f6112ae6020830184612199565b5f602082840312156121e6575f80fd5b5035919050565b6001600160a01b038116811461101f575f80fd5b5f8060408385031215612212575f80fd5b823561221d816121ed565b946020939093013593505050565b5f6020828403121561223b575f80fd5b81356112ae816121ed565b5f805f60608486031215612258575f80fd5b8335612263816121ed565b92506020840135612273816121ed565b929592945050506040919091013590565b5f8060408385031215612295575f80fd5b82356122a0816121ed565b9150602083013580151581146122b4575f80fd5b809150509250929050565b634e487b7160e01b5f52604160045260245ffd5b5f805f80608085870312156122e6575f80fd5b84356122f1816121ed565b93506020850135612301816121ed565b925060408501359150606085013567ffffffffffffffff80821115612324575f80fd5b818701915087601f830112612337575f80fd5b813581811115612349576123496122bf565b604051601f8201601f19908116603f01168101908382118183101715612371576123716122bf565b816040528281528a6020848701011115612389575f80fd5b826020860160208301375f60208483010152809550505050505092959194509250565b5f80604083850312156123bd575f80fd5b82356123c8816121ed565b915060208301356122b4816121ed565b600181811c908216806123ec57607f821691505b60208210810361240a57634e487b7160e01b5f52602260045260245ffd5b50919050565b634e487b7160e01b5f52603260045260245ffd5b634e487b7160e01b5f52601260045260245ffd5b634e487b7160e01b5f52601160045260245ffd5b5f8261245a5761245a612424565b500490565b808202811582820484141761071f5761071f612438565b5f6001820161248757612487612438565b5060010190565b8082018082111561071f5761071f612438565b5f81516124b2818560208601612177565b9290920192915050565b6d4c6f6f742053637261746368202360901b81525f83516124e481600e850160208801612177565b6201016960ed1b600e918401918201528351612507816011840160208801612177565b01601101949350505050565b7f412070726f7661626c792066616972206f6e2d636861696e207363726174636881526e01031b0b93217102930b934ba3c9d1608d1b60208201525f835161256281602f850160208801612177565b6b0171026b4b73a32b210313c960a51b602f91840191820152835161258e81603b840160208801612177565b7f2e20506f7765726564206279206f6e2d636861696e2072616e646f6d6e657373603b9290910191820152601760f91b605b820152605c01949350505050565b683d913730b6b2911d1160b91b815283515f906125f2816009850160208901612177565b701116113232b9b1b934b83a34b7b7111d1160791b600991840191820152845161262381601a840160208901612177565b7f222c22696d616765223a22646174613a696d6167652f7376672b786d6c3b6261601a9290910191820152641cd94d8d0b60da1b603a820152835161266f81603f840160208801612177565b61227d60f01b603f929091019182015260410195945050505050565b7f646174613a6170706c69636174696f6e2f6a736f6e3b6261736536342c00000081525f82516126c281601d850160208701612177565b91909101601d0192915050565b8181038181111561071f5761071f612438565b5f826126f0576126f0612424565b500690565b6001600160a01b03858116825284166020820152604081018390526080606082018190525f9061272790830184612199565b9695505050505050565b5f60208284031215612741575f80fd5b81516112ae81612147565b600181815b8085111561278657815f190482111561276c5761276c612438565b8085161561277957918102915b93841c9390800290612751565b509250929050565b5f8261279c5750600161071f565b816127a857505f61071f565b81600181146127be57600281146127c8576127e4565b600191505061071f565b60ff8411156127d9576127d9612438565b50506001821b61071f565b5060208310610133831016604e8410600b8410161715612807575081810a61071f565b612811838361274c565b805f190482111561282457612824612438565b029392505050565b5f6112ae838361278e565b5f60ff83168061284957612849612424565b8060ff84160491505092915050565b5f60ff83168061286a5761286a612424565b8060ff84160691505092915050565b634e487b7160e01b5f52603160045260245ffd5b60ff818116838216019081111561071f5761071f612438565b7f3c73766720786d6c6e733d22687474703a2f2f7777772e77332e6f72672f323081527f30302f737667222077696474683d2234303022206865696768743d223430302260208201527f2076696577426f783d223020302034303020343030223e000000000000000000604082015260570190565b5f612925826128a6565b7f3c646566733e3c7061747465726e2069643d2270222077696474683d2238222081527f6865696768743d223822207061747465726e556e6974733d227573657253706160208201526831b2a7b72ab9b2911f60b91b60408201527f3c726563742077696474683d223422206865696768743d2234222066696c6c3d604982015267111199999991179f60c11b60698201527f3c7265637420783d22342220793d2234222077696474683d223422206865696760718201527f68743d2234222066696c6c3d2223333333222f3e3c2f7061747465726e3e3c2f6091820152643232b3399f60d91b60b18201525f8051602061356683398151915260b68201526b34b6361e911198181811179f60a11b60d68201527f3c7265637420783d2232302220793d223230222077696474683d22333630222060e28201527f6865696768743d22333630222066696c6c3d226e6f6e6522207374726f6b653d6101028201527f222366666437303022207374726f6b652d77696474683d2238222f3e000000006101228201527f3c7265637420783d2234302220793d223430222077696474683d22333230222061013e8201527f6865696768743d22333230222066696c6c3d2275726c2823702922206f70616361015e8201526a34ba3c9e9118171a11179f60a91b61017e8201527f3c7465787420783d223230302220793d223139302220746578742d616e63686f6101898201525f805160206135468339815191526101a98201527f652220666f6e742d73697a653d223234222066696c6c3d2223653633393436226101c9820152701f2622a3a2a72220a92c9e17ba32bc3a1f60791b6101e9820152612c0b612c056101fa83017f3c7465787420783d223230302220793d223233302220746578742d616e63686f81525f8051602061354683398151915260208201527f652220666f6e742d73697a653d223136222066696c6c3d2223666664373030226040820152613e2360f01b606082015260620190565b856124a1565b6c1e17ba32bc3a1f1e17b9bb339f60991b8152600d01949350505050565b5f612c33826128a6565b5f8051602061356683398151915281526e34b6361e9111999918b118b111179f60891b60208201527f3c6c696e652078313d22323030222079313d22323030222078323d2232303022602f82018190527f2079323d2234302220207374726f6b653d222366666622207374726f6b652d77604f8301526934b23a341e911911179f60b11b606f83018190527f3c6c696e652078313d22323030222079313d22323030222078323d223336302260798401527f2079323d2232303022207374726f6b653d222366666622207374726f6b652d77609984015260b9830181905260c38301919091527f2079323d2233363022207374726f6b653d222366666622207374726f6b652d7760e3830152610103820152612c0b612c0561302b612fb7612f4f612eed612e8b612e29612dc761010d8a017f3c6c696e652078313d22323030222079313d22323030222078323d223430222081527f2079323d2232303022207374726f6b653d222366666622207374726f6b652d7760208201526934b23a341e911911179f60b11b6040820152604a0190565b7f3c6c696e652078313d22323030222079313d22323030222078323d223332302281527f2079323d2238302220207374726f6b653d222366666622207374726f6b652d7760208201526934b23a341e911911179f60b11b6040820152604a0190565b7f3c6c696e652078313d22323030222079313d22323030222078323d223332302281527f2079323d2233323022207374726f6b653d222366666622207374726f6b652d7760208201526934b23a341e911911179f60b11b6040820152604a0190565b7f3c6c696e652078313d22323030222079313d22323030222078323d223830222081527f2079323d2233323022207374726f6b653d222366666622207374726f6b652d7760208201526934b23a341e911911179f60b11b6040820152604a0190565b7f3c6c696e652078313d22323030222079313d22323030222078323d223830222081527f2079323d2238302220207374726f6b653d222366666622207374726f6b652d7760208201526934b23a341e911911179f60b11b6040820152604a0190565b7f3c636972636c652063783d22323030222063793d223230302220723d2237302281527f2066696c6c3d226e6f6e6522207374726f6b653d22233963323762302220737460208201526f3937b5b296bbb4b23a341e911a91179f60811b604082015260500190565b7f3c7465787420783d223230302220793d223231302220746578742d616e63686f81525f8051602061354683398151915260208201527f652220666f6e742d73697a653d223238222066696c6c3d2223666666223e455060408201526824a19e17ba32bc3a1f60b91b606082015260690190565b7f3c7465787420783d223230302220793d223336302220746578742d616e63686f81525f8051602061354683398151915260208201527f652220666f6e742d73697a653d223134222066696c6c3d2223396332376230226040820152613e2360f01b606082015260620190565b5f6130a2826128a6565b7f3c646566733e3c7061747465726e2069643d2273222077696474683d2232302281527f206865696768743d22323022207061747465726e556e6974733d22757365725360208201527f706163654f6e55736522207061747465726e5472616e73666f726d3d22726f7460408201526830ba32941a1a94911f60b91b60608201527f3c726563742077696474683d22313022206865696768743d223230222066696c60698201527f6c3d2223303030222f3e3c2f7061747465726e3e3c2f646566733e000000000060898201525f8051602061356683398151915260a482018190526e34b6361e9111b3333231199991179f60891b60c483015260d38201527f696c6c3d2275726c2823732922206f7061636974793d22302e3135222f3e000060f38201527f3c7265637420783d2234302220793d223430222077696474683d2233323022206101118201527f6865696768743d22333230222066696c6c3d226e6f6e6522207374726f6b653d6101318201527f222330303636636322207374726f6b652d77696474683d2236222f3e000000006101518201527f3c7465787420783d223230302220793d223231302220746578742d616e63686f61016d8201525f8051602061354683398151915261018d8201527f652220666f6e742d73697a653d223236222066696c6c3d2223303030223e52416101ad8201526829229e17ba32bc3a1f60b91b6101cd820152612c0b612c056101d683015b7f3c7465787420783d223230302220793d223336302220746578742d616e63686f81525f8051602061354683398151915260208201527f652220666f6e742d73697a653d223134222066696c6c3d2223303030223e23006040820152605f0190565b5f613329826128a6565b7f3c646566733e3c7061747465726e2069643d226367222077696474683d22323081527f22206865696768743d22323022207061747465726e556e6974733d227573657260208201526b29b830b1b2a7b72ab9b2911f60a11b60408201527f3c7061746820643d224d30203068323076323048307a222066696c6c3d226e6f604c8201527f6e6522207374726f6b653d222330303022207374726f6b652d77696474683d22606c820152741891179f1e17b830ba3a32b9371f1e17b232b3399f60591b608c8201525f8051602061356683398151915260a182018190526e34b6361e9111b3333333333311179f60891b60c183015260d08201527f696c6c3d2275726c282363672922206f7061636974793d22302e3132222f3e0060f08201527f3c7265637420783d223132302220793d22313730222077696474683d2231363061010f8201527f22206865696768743d223630222066696c6c3d2223396539653965222073747261012f8201527f6f6b653d222330303022207374726f6b652d77696474683d2232222f3e00000061014f8201527f3c7465787420783d223230302220793d223231302220746578742d616e63686f61016c8201525f8051602061354683398151915261018c8201527f652220666f6e742d73697a653d223232222066696c6c3d2223303030223e434f6101ac8201526a26a6a7a71e17ba32bc3a1f60a91b6101cc820152612c0b612c056101d783016132bd56fe723d226d6964646c652220666f6e742d66616d696c793d226d6f6e6f737061633c726563742077696474683d2234303022206865696768743d22343030222066a26469706673582212205bbdc27428b941a26bf1f74b4066f57968440aff94c851e9bb4a3b24250d751e64736f6c63430008180033",
  "linkReferences": {},
  "deployedLinkReferences": {}
}